{
  "_format": "hh-sol-artifact-1",
  "contractName": "NeedInitialize",
  "sourceName": "contracts/utils/NeedInitialize.sol",
  "abi": [
    {
      "inputs": [],
      "name": "initialized",
      "outputs": [
        {
          "internalType": "bool",
          "name": "",
          "type": "bool"
        }
      ],
      "stateMutability": "view",
      "type": "function"
    }
  ],
  "bytecode": "0x608060405234801561001057600080fd5b5060c08061001f6000396000f3fe6080604052348015600f57600080fd5b506004361060285760003560e01c8063158ef93e14602d575b600080fd5b60336047565b604051603e91906065565b60405180910390f35b60008054906101000a900460ff1681565b605f81607e565b82525050565b6000602082019050607860008301846058565b92915050565b6000811515905091905056fea26469706673582212207d892440e8f6bdb28b43cc1bcf9bfa3c6efb7ddd8ec143413d35e20aba4da3c864736f6c63430008020033",
  "linkReferences": {},
  "deployedLinkReferences": {}
}