{
  "_format": "hh-sol-artifact-1",
  "contractName": "MappedNFTDeployer",
  "sourceName": "contracts/MappedNFTDeployer.sol",
  "abi": [
    {
      "anonymous": false,
      "inputs": [
        {
          "indexed": true,
          "internalType": "address",
          "name": "previousOwner",
          "type": "address"
        },
        {
          "indexed": true,
          "internalType": "address",
          "name": "newOwner",
          "type": "address"
        }
      ],
      "name": "OwnershipTransferred",
      "type": "event"
    },
    {
      "inputs": [],
      "name": "beacon",
      "outputs": [
        {
          "internalType": "address",
          "name": "",
          "type": "address"
        }
      ],
      "stateMutability": "view",
      "type": "function"
    },
    {
      "inputs": [
        {
          "internalType": "uint256",
          "name": "offset",
          "type": "uint256"
        }
      ],
      "name": "getTokens",
      "outputs": [
        {
          "internalType": "address[]",
          "name": "result",
          "type": "address[]"
        },
        {
          "internalType": "uint256",
          "name": "cnt",
          "type": "uint256"
        }
      ],
      "stateMutability": "view",
      "type": "function"
    },
    {
      "inputs": [
        {
          "internalType": "uint256",
          "name": "",
          "type": "uint256"
        }
      ],
      "name": "mappedTokenList",
      "outputs": [
        {
          "internalType": "address",
          "name": "",
          "type": "address"
        }
      ],
      "stateMutability": "view",
      "type": "function"
    },
    {
      "inputs": [
        {
          "internalType": "address",
          "name": "",
          "type": "address"
        }
      ],
      "name": "mappedTokens",
      "outputs": [
        {
          "internalType": "address",
          "name": "",
          "type": "address"
        }
      ],
      "stateMutability": "view",
      "type": "function"
    },
    {
      "inputs": [],
      "name": "owner",
      "outputs": [
        {
          "internalType": "address",
          "name": "",
          "type": "address"
        }
      ],
      "stateMutability": "view",
      "type": "function"
    },
    {
      "inputs": [],
      "name": "renounceOwnership",
      "outputs": [],
      "stateMutability": "nonpayable",
      "type": "function"
    },
    {
      "inputs": [
        {
          "internalType": "address",
          "name": "",
          "type": "address"
        }
      ],
      "name": "sourceTokens",
      "outputs": [
        {
          "internalType": "address",
          "name": "",
          "type": "address"
        }
      ],
      "stateMutability": "view",
      "type": "function"
    },
    {
      "inputs": [
        {
          "internalType": "address",
          "name": "newOwner",
          "type": "address"
        }
      ],
      "name": "transferOwnership",
      "outputs": [],
      "stateMutability": "nonpayable",
      "type": "function"
    }
  ],
  "bytecode": "0x608060405234801561001057600080fd5b5061002d61002261003260201b60201c565b61003a60201b60201c565b6100fe565b600033905090565b60008060009054906101000a900473ffffffffffffffffffffffffffffffffffffffff169050816000806101000a81548173ffffffffffffffffffffffffffffffffffffffff021916908373ffffffffffffffffffffffffffffffffffffffff1602179055508173ffffffffffffffffffffffffffffffffffffffff168173ffffffffffffffffffffffffffffffffffffffff167f8be0079c531659141344cd1fd0a4f28419497f9722a3daafe3b4186f6b6457e060405160405180910390a35050565b610a9f8061010d6000396000f3fe608060405234801561001057600080fd5b50600436106100885760003560e01c80638da5cb5b1161005b5780638da5cb5b14610115578063d3c9cc2614610133578063e6ede14d14610164578063f2fde38b1461019457610088565b806338e3eadf1461008d57806359659e90146100bd578063715018a6146100db578063849cd5cf146100e5575b600080fd5b6100a760048036038101906100a2919061069e565b6101b0565b6040516100b491906107b0565b60405180910390f35b6100c56101ef565b6040516100d291906107b0565b60405180910390f35b6100e3610215565b005b6100ff60048036038101906100fa9190610675565b610229565b60405161010c91906107b0565b60405180910390f35b61011d61025c565b60405161012a91906107b0565b60405180910390f35b61014d6004803603810190610148919061069e565b610285565b60405161015b9291906107cb565b60405180910390f35b61017e60048036038101906101799190610675565b61044a565b60405161018b91906107b0565b60405180910390f35b6101ae60048036038101906101a99190610675565b61047d565b005b600381815481106101c057600080fd5b906000526020600020016000915054906101000a900473ffffffffffffffffffffffffffffffffffffffff1681565b600460009054906101000a900473ffffffffffffffffffffffffffffffffffffffff1681565b61021d610501565b610227600061057f565b565b60026020528060005260406000206000915054906101000a900473ffffffffffffffffffffffffffffffffffffffff1681565b60008060009054906101000a900473ffffffffffffffffffffffffffffffffffffffff16905090565b6060600060038054905090506000816064856102a19190610885565b106102ac57816102ba565b6064846102b99190610885565b5b9050838111156104445783816102d091906108db565b67ffffffffffffffff81111561030f577f4e487b7100000000000000000000000000000000000000000000000000000000600052604160045260246000fd5b60405190808252806020026020018201604052801561033d5781602001602082028036833780820191505090505b50925060008490505b818110156104425760038181548110610388577f4e487b7100000000000000000000000000000000000000000000000000000000600052603260045260246000fd5b9060005260206000200160009054906101000a900473ffffffffffffffffffffffffffffffffffffffff168486836103c091906108db565b815181106103f7577f4e487b7100000000000000000000000000000000000000000000000000000000600052603260045260246000fd5b602002602001019073ffffffffffffffffffffffffffffffffffffffff16908173ffffffffffffffffffffffffffffffffffffffff16815250508061043b9061094b565b9050610346565b505b50915091565b60016020528060005260406000206000915054906101000a900473ffffffffffffffffffffffffffffffffffffffff1681565b610485610501565b600073ffffffffffffffffffffffffffffffffffffffff168173ffffffffffffffffffffffffffffffffffffffff1614156104f5576040517f08c379a00000000000000000000000000000000000000000000000000000000081526004016104ec906107fb565b60405180910390fd5b6104fe8161057f565b50565b610509610643565b73ffffffffffffffffffffffffffffffffffffffff1661052761025c565b73ffffffffffffffffffffffffffffffffffffffff161461057d576040517f08c379a00000000000000000000000000000000000000000000000000000000081526004016105749061081b565b60405180910390fd5b565b60008060009054906101000a900473ffffffffffffffffffffffffffffffffffffffff169050816000806101000a81548173ffffffffffffffffffffffffffffffffffffffff021916908373ffffffffffffffffffffffffffffffffffffffff1602179055508173ffffffffffffffffffffffffffffffffffffffff168173ffffffffffffffffffffffffffffffffffffffff167f8be0079c531659141344cd1fd0a4f28419497f9722a3daafe3b4186f6b6457e060405160405180910390a35050565b600033905090565b60008135905061065a81610a3b565b92915050565b60008135905061066f81610a52565b92915050565b60006020828403121561068757600080fd5b60006106958482850161064b565b91505092915050565b6000602082840312156106b057600080fd5b60006106be84828501610660565b91505092915050565b60006106d383836106df565b60208301905092915050565b6106e88161090f565b82525050565b6106f78161090f565b82525050565b60006107088261084b565b6107128185610863565b935061071d8361083b565b8060005b8381101561074e57815161073588826106c7565b975061074083610856565b925050600181019050610721565b5085935050505092915050565b6000610768602683610874565b9150610773826109c3565b604082019050919050565b600061078b602083610874565b915061079682610a12565b602082019050919050565b6107aa81610941565b82525050565b60006020820190506107c560008301846106ee565b92915050565b600060408201905081810360008301526107e581856106fd565b90506107f460208301846107a1565b9392505050565b600060208201905081810360008301526108148161075b565b9050919050565b600060208201905081810360008301526108348161077e565b9050919050565b6000819050602082019050919050565b600081519050919050565b6000602082019050919050565b600082825260208201905092915050565b600082825260208201905092915050565b600061089082610941565b915061089b83610941565b9250827fffffffffffffffffffffffffffffffffffffffffffffffffffffffffffffffff038211156108d0576108cf610994565b5b828201905092915050565b60006108e682610941565b91506108f183610941565b92508282101561090457610903610994565b5b828203905092915050565b600061091a82610921565b9050919050565b600073ffffffffffffffffffffffffffffffffffffffff82169050919050565b6000819050919050565b600061095682610941565b91507fffffffffffffffffffffffffffffffffffffffffffffffffffffffffffffffff82141561098957610988610994565b5b600182019050919050565b7f4e487b7100000000000000000000000000000000000000000000000000000000600052601160045260246000fd5b7f4f776e61626c653a206e6577206f776e657220697320746865207a65726f206160008201527f6464726573730000000000000000000000000000000000000000000000000000602082015250565b7f4f776e61626c653a2063616c6c6572206973206e6f7420746865206f776e6572600082015250565b610a448161090f565b8114610a4f57600080fd5b50565b610a5b81610941565b8114610a6657600080fd5b5056fea2646970667358221220225ee02f26cae60db2221c6040ab73ad77394246edffe03ff1a9d20227f7c16364736f6c63430008020033",
  "linkReferences": {},
  "deployedLinkReferences": {}
}