{
  "_format": "hh-sol-artifact-1",
  "contractName": "WhitelistAdminRole",
  "sourceName": "contracts/roles/WhitelistAdminRole.sol",
  "abi": [
    {
      "inputs": [],
      "stateMutability": "nonpayable",
      "type": "constructor"
    },
    {
      "anonymous": false,
      "inputs": [
        {
          "indexed": true,
          "internalType": "address",
          "name": "account",
          "type": "address"
        }
      ],
      "name": "WhitelistAdminAdded",
      "type": "event"
    },
    {
      "anonymous": false,
      "inputs": [
        {
          "indexed": true,
          "internalType": "address",
          "name": "account",
          "type": "address"
        }
      ],
      "name": "WhitelistAdminRemoved",
      "type": "event"
    },
    {
      "inputs": [
        {
          "internalType": "address",
          "name": "account",
          "type": "address"
        }
      ],
      "name": "addWhitelistAdmin",
      "outputs": [],
      "stateMutability": "nonpayable",
      "type": "function"
    },
    {
      "inputs": [
        {
          "internalType": "address",
          "name": "account",
          "type": "address"
        }
      ],
      "name": "isWhitelistAdmin",
      "outputs": [
        {
          "internalType": "bool",
          "name": "",
          "type": "bool"
        }
      ],
      "stateMutability": "view",
      "type": "function"
    },
    {
      "inputs": [],
      "name": "renounceWhitelistAdmin",
      "outputs": [],
      "stateMutability": "nonpayable",
      "type": "function"
    }
  ],
  "bytecode": "0x608060405234801561001057600080fd5b5061002d61002261003260201b60201c565b61003a60201b60201c565b61031d565b600033905090565b61005281600061009860201b6101261790919060201c565b8073ffffffffffffffffffffffffffffffffffffffff167f22380c05984257a1cb900161c713dd71d39e74820f1aea43bd3f1bdd2096129960405160405180910390a250565b6100a8828261014660201b60201c565b156100e8576040517f08c379a00000000000000000000000000000000000000000000000000000000081526004016100df90610254565b60405180910390fd5b60018260000160008373ffffffffffffffffffffffffffffffffffffffff1673ffffffffffffffffffffffffffffffffffffffff16815260200190815260200160002060006101000a81548160ff0219169083151502179055505050565b60008073ffffffffffffffffffffffffffffffffffffffff168273ffffffffffffffffffffffffffffffffffffffff1614156101b7576040517f08c379a00000000000000000000000000000000000000000000000000000000081526004016101ae90610274565b60405180910390fd5b8260000160008373ffffffffffffffffffffffffffffffffffffffff1673ffffffffffffffffffffffffffffffffffffffff16815260200190815260200160002060009054906101000a900460ff16905092915050565b600061021b601f83610294565b9150610226826102a5565b602082019050919050565b600061023e602283610294565b9150610249826102ce565b604082019050919050565b6000602082019050818103600083015261026d8161020e565b9050919050565b6000602082019050818103600083015261028d81610231565b9050919050565b600082825260208201905092915050565b7f526f6c65733a206163636f756e7420616c72656164792068617320726f6c6500600082015250565b7f526f6c65733a206163636f756e7420697320746865207a65726f20616464726560008201527f7373000000000000000000000000000000000000000000000000000000000000602082015250565b61071f8061032c6000396000f3fe608060405234801561001057600080fd5b50600436106100415760003560e01c80634c5a628c146100465780637362d9c814610050578063bb5f747b1461006c575b600080fd5b61004e61009c565b005b61006a6004803603810190610065919061040e565b6100ae565b005b6100866004803603810190610081919061040e565b610109565b60405161009391906104d2565b60405180910390f35b6100ac6100a76101ce565b6101d6565b565b6100be6100b96101ce565b610109565b6100fd576040517f08c379a00000000000000000000000000000000000000000000000000000000081526004016100f49061054d565b60405180910390fd5b61010681610230565b50565b600061011f82600061028a90919063ffffffff16565b9050919050565b610130828261028a565b15610170576040517f08c379a0000000000000000000000000000000000000000000000000000000008152600401610167906104ed565b60405180910390fd5b60018260000160008373ffffffffffffffffffffffffffffffffffffffff1673ffffffffffffffffffffffffffffffffffffffff16815260200190815260200160002060006101000a81548160ff0219169083151502179055505050565b600033905090565b6101ea81600061035290919063ffffffff16565b8073ffffffffffffffffffffffffffffffffffffffff167f0a8eb35e5ca14b3d6f28e4abf2f128dbab231a58b56e89beb5d636115001e16560405160405180910390a250565b61024481600061012690919063ffffffff16565b8073ffffffffffffffffffffffffffffffffffffffff167f22380c05984257a1cb900161c713dd71d39e74820f1aea43bd3f1bdd2096129960405160405180910390a250565b60008073ffffffffffffffffffffffffffffffffffffffff168273ffffffffffffffffffffffffffffffffffffffff1614156102fb576040517f08c379a00000000000000000000000000000000000000000000000000000000081526004016102f29061052d565b60405180910390fd5b8260000160008373ffffffffffffffffffffffffffffffffffffffff1673ffffffffffffffffffffffffffffffffffffffff16815260200190815260200160002060009054906101000a900460ff16905092915050565b61035c828261028a565b61039b576040517f08c379a00000000000000000000000000000000000000000000000000000000081526004016103929061050d565b60405180910390fd5b60008260000160008373ffffffffffffffffffffffffffffffffffffffff1673ffffffffffffffffffffffffffffffffffffffff16815260200190815260200160002060006101000a81548160ff0219169083151502179055505050565b600081359050610408816106d2565b92915050565b60006020828403121561042057600080fd5b600061042e848285016103f9565b91505092915050565b61044081610590565b82525050565b6000610453601f8361056d565b915061045e826105bc565b602082019050919050565b600061047660218361056d565b9150610481826105e5565b604082019050919050565b600061049960228361056d565b91506104a482610634565b604082019050919050565b60006104bc60408361056d565b91506104c782610683565b604082019050919050565b60006020820190506104e76000830184610437565b92915050565b6000602082019050818103600083015261050681610446565b9050919050565b6000602082019050818103600083015261052681610469565b9050919050565b600060208201905081810360008301526105468161048c565b9050919050565b60006020820190508181036000830152610566816104af565b9050919050565b600082825260208201905092915050565b60006105898261059c565b9050919050565b60008115159050919050565b600073ffffffffffffffffffffffffffffffffffffffff82169050919050565b7f526f6c65733a206163636f756e7420616c72656164792068617320726f6c6500600082015250565b7f526f6c65733a206163636f756e7420646f6573206e6f74206861766520726f6c60008201527f6500000000000000000000000000000000000000000000000000000000000000602082015250565b7f526f6c65733a206163636f756e7420697320746865207a65726f20616464726560008201527f7373000000000000000000000000000000000000000000000000000000000000602082015250565b7f57686974656c69737441646d696e526f6c653a2063616c6c657220646f65732060008201527f6e6f742068617665207468652057686974656c69737441646d696e20726f6c65602082015250565b6106db8161057e565b81146106e657600080fd5b5056fea2646970667358221220c67cf3bdf5edecb46ace8c08dd475966d31c9860383e4e3a58597978ffa802a464736f6c63430008020033",
  "linkReferences": {},
  "deployedLinkReferences": {}
}