{
  "_format": "hh-sol-artifact-1",
  "contractName": "UpgradeableERC721",
  "sourceName": "contracts/UpgradeableERC721.sol",
  "abi": [
    {
      "inputs": [],
      "stateMutability": "nonpayable",
      "type": "constructor"
    },
    {
      "anonymous": false,
      "inputs": [
        {
          "indexed": true,
          "internalType": "address",
          "name": "owner",
          "type": "address"
        },
        {
          "indexed": true,
          "internalType": "address",
          "name": "approved",
          "type": "address"
        },
        {
          "indexed": true,
          "internalType": "uint256",
          "name": "tokenId",
          "type": "uint256"
        }
      ],
      "name": "Approval",
      "type": "event"
    },
    {
      "anonymous": false,
      "inputs": [
        {
          "indexed": true,
          "internalType": "address",
          "name": "owner",
          "type": "address"
        },
        {
          "indexed": true,
          "internalType": "address",
          "name": "operator",
          "type": "address"
        },
        {
          "indexed": false,
          "internalType": "bool",
          "name": "approved",
          "type": "bool"
        }
      ],
      "name": "ApprovalForAll",
      "type": "event"
    },
    {
      "anonymous": false,
      "inputs": [
        {
          "indexed": false,
          "internalType": "uint8",
          "name": "version",
          "type": "uint8"
        }
      ],
      "name": "Initialized",
      "type": "event"
    },
    {
      "anonymous": false,
      "inputs": [
        {
          "indexed": true,
          "internalType": "bytes32",
          "name": "role",
          "type": "bytes32"
        },
        {
          "indexed": true,
          "internalType": "bytes32",
          "name": "previousAdminRole",
          "type": "bytes32"
        },
        {
          "indexed": true,
          "internalType": "bytes32",
          "name": "newAdminRole",
          "type": "bytes32"
        }
      ],
      "name": "RoleAdminChanged",
      "type": "event"
    },
    {
      "anonymous": false,
      "inputs": [
        {
          "indexed": true,
          "internalType": "bytes32",
          "name": "role",
          "type": "bytes32"
        },
        {
          "indexed": true,
          "internalType": "address",
          "name": "account",
          "type": "address"
        },
        {
          "indexed": true,
          "internalType": "address",
          "name": "sender",
          "type": "address"
        }
      ],
      "name": "RoleGranted",
      "type": "event"
    },
    {
      "anonymous": false,
      "inputs": [
        {
          "indexed": true,
          "internalType": "bytes32",
          "name": "role",
          "type": "bytes32"
        },
        {
          "indexed": true,
          "internalType": "address",
          "name": "account",
          "type": "address"
        },
        {
          "indexed": true,
          "internalType": "address",
          "name": "sender",
          "type": "address"
        }
      ],
      "name": "RoleRevoked",
      "type": "event"
    },
    {
      "anonymous": false,
      "inputs": [
        {
          "indexed": true,
          "internalType": "address",
          "name": "from",
          "type": "address"
        },
        {
          "indexed": true,
          "internalType": "address",
          "name": "to",
          "type": "address"
        },
        {
          "indexed": true,
          "internalType": "uint256",
          "name": "tokenId",
          "type": "uint256"
        }
      ],
      "name": "Transfer",
      "type": "event"
    },
    {
      "inputs": [],
      "name": "DEFAULT_ADMIN_ROLE",
      "outputs": [
        {
          "internalType": "bytes32",
          "name": "",
          "type": "bytes32"
        }
      ],
      "stateMutability": "view",
      "type": "function"
    },
    {
      "inputs": [],
      "name": "MINTER_ROLE",
      "outputs": [
        {
          "internalType": "bytes32",
          "name": "",
          "type": "bytes32"
        }
      ],
      "stateMutability": "view",
      "type": "function"
    },
    {
      "inputs": [
        {
          "internalType": "address",
          "name": "to",
          "type": "address"
        },
        {
          "internalType": "uint256",
          "name": "tokenId",
          "type": "uint256"
        }
      ],
      "name": "approve",
      "outputs": [],
      "stateMutability": "nonpayable",
      "type": "function"
    },
    {
      "inputs": [
        {
          "internalType": "address",
          "name": "owner",
          "type": "address"
        }
      ],
      "name": "balanceOf",
      "outputs": [
        {
          "internalType": "uint256",
          "name": "",
          "type": "uint256"
        }
      ],
      "stateMutability": "view",
      "type": "function"
    },
    {
      "inputs": [
        {
          "internalType": "uint256",
          "name": "tokenId",
          "type": "uint256"
        }
      ],
      "name": "burn",
      "outputs": [],
      "stateMutability": "nonpayable",
      "type": "function"
    },
    {
      "inputs": [
        {
          "internalType": "uint256",
          "name": "tokenId",
          "type": "uint256"
        }
      ],
      "name": "getApproved",
      "outputs": [
        {
          "internalType": "address",
          "name": "",
          "type": "address"
        }
      ],
      "stateMutability": "view",
      "type": "function"
    },
    {
      "inputs": [
        {
          "internalType": "bytes32",
          "name": "role",
          "type": "bytes32"
        }
      ],
      "name": "getRoleAdmin",
      "outputs": [
        {
          "internalType": "bytes32",
          "name": "",
          "type": "bytes32"
        }
      ],
      "stateMutability": "view",
      "type": "function"
    },
    {
      "inputs": [
        {
          "internalType": "bytes32",
          "name": "role",
          "type": "bytes32"
        },
        {
          "internalType": "address",
          "name": "account",
          "type": "address"
        }
      ],
      "name": "grantRole",
      "outputs": [],
      "stateMutability": "nonpayable",
      "type": "function"
    },
    {
      "inputs": [
        {
          "internalType": "bytes32",
          "name": "role",
          "type": "bytes32"
        },
        {
          "internalType": "address",
          "name": "account",
          "type": "address"
        }
      ],
      "name": "hasRole",
      "outputs": [
        {
          "internalType": "bool",
          "name": "",
          "type": "bool"
        }
      ],
      "stateMutability": "view",
      "type": "function"
    },
    {
      "inputs": [
        {
          "internalType": "string",
          "name": "_name",
          "type": "string"
        },
        {
          "internalType": "string",
          "name": "_symbol",
          "type": "string"
        }
      ],
      "name": "initialize",
      "outputs": [],
      "stateMutability": "nonpayable",
      "type": "function"
    },
    {
      "inputs": [
        {
          "internalType": "address",
          "name": "owner",
          "type": "address"
        },
        {
          "internalType": "address",
          "name": "operator",
          "type": "address"
        }
      ],
      "name": "isApprovedForAll",
      "outputs": [
        {
          "internalType": "bool",
          "name": "",
          "type": "bool"
        }
      ],
      "stateMutability": "view",
      "type": "function"
    },
    {
      "inputs": [],
      "name": "name",
      "outputs": [
        {
          "internalType": "string",
          "name": "",
          "type": "string"
        }
      ],
      "stateMutability": "view",
      "type": "function"
    },
    {
      "inputs": [
        {
          "internalType": "uint256",
          "name": "tokenId",
          "type": "uint256"
        }
      ],
      "name": "ownerOf",
      "outputs": [
        {
          "internalType": "address",
          "name": "",
          "type": "address"
        }
      ],
      "stateMutability": "view",
      "type": "function"
    },
    {
      "inputs": [
        {
          "internalType": "bytes32",
          "name": "role",
          "type": "bytes32"
        },
        {
          "internalType": "address",
          "name": "account",
          "type": "address"
        }
      ],
      "name": "renounceRole",
      "outputs": [],
      "stateMutability": "nonpayable",
      "type": "function"
    },
    {
      "inputs": [
        {
          "internalType": "bytes32",
          "name": "role",
          "type": "bytes32"
        },
        {
          "internalType": "address",
          "name": "account",
          "type": "address"
        }
      ],
      "name": "revokeRole",
      "outputs": [],
      "stateMutability": "nonpayable",
      "type": "function"
    },
    {
      "inputs": [
        {
          "internalType": "address",
          "name": "to",
          "type": "address"
        },
        {
          "internalType": "uint256",
          "name": "tokenId",
          "type": "uint256"
        }
      ],
      "name": "safeMint",
      "outputs": [],
      "stateMutability": "nonpayable",
      "type": "function"
    },
    {
      "inputs": [
        {
          "internalType": "address",
          "name": "from",
          "type": "address"
        },
        {
          "internalType": "address",
          "name": "to",
          "type": "address"
        },
        {
          "internalType": "uint256",
          "name": "tokenId",
          "type": "uint256"
        }
      ],
      "name": "safeTransferFrom",
      "outputs": [],
      "stateMutability": "nonpayable",
      "type": "function"
    },
    {
      "inputs": [
        {
          "internalType": "address",
          "name": "from",
          "type": "address"
        },
        {
          "internalType": "address",
          "name": "to",
          "type": "address"
        },
        {
          "internalType": "uint256",
          "name": "tokenId",
          "type": "uint256"
        },
        {
          "internalType": "bytes",
          "name": "data",
          "type": "bytes"
        }
      ],
      "name": "safeTransferFrom",
      "outputs": [],
      "stateMutability": "nonpayable",
      "type": "function"
    },
    {
      "inputs": [
        {
          "internalType": "address",
          "name": "operator",
          "type": "address"
        },
        {
          "internalType": "bool",
          "name": "approved",
          "type": "bool"
        }
      ],
      "name": "setApprovalForAll",
      "outputs": [],
      "stateMutability": "nonpayable",
      "type": "function"
    },
    {
      "inputs": [
        {
          "internalType": "bytes4",
          "name": "interfaceId",
          "type": "bytes4"
        }
      ],
      "name": "supportsInterface",
      "outputs": [
        {
          "internalType": "bool",
          "name": "",
          "type": "bool"
        }
      ],
      "stateMutability": "view",
      "type": "function"
    },
    {
      "inputs": [],
      "name": "symbol",
      "outputs": [
        {
          "internalType": "string",
          "name": "",
          "type": "string"
        }
      ],
      "stateMutability": "view",
      "type": "function"
    },
    {
      "inputs": [
        {
          "internalType": "uint256",
          "name": "index",
          "type": "uint256"
        }
      ],
      "name": "tokenByIndex",
      "outputs": [
        {
          "internalType": "uint256",
          "name": "",
          "type": "uint256"
        }
      ],
      "stateMutability": "view",
      "type": "function"
    },
    {
      "inputs": [
        {
          "internalType": "address",
          "name": "owner",
          "type": "address"
        },
        {
          "internalType": "uint256",
          "name": "index",
          "type": "uint256"
        }
      ],
      "name": "tokenOfOwnerByIndex",
      "outputs": [
        {
          "internalType": "uint256",
          "name": "",
          "type": "uint256"
        }
      ],
      "stateMutability": "view",
      "type": "function"
    },
    {
      "inputs": [
        {
          "internalType": "uint256",
          "name": "tokenId",
          "type": "uint256"
        }
      ],
      "name": "tokenURI",
      "outputs": [
        {
          "internalType": "string",
          "name": "",
          "type": "string"
        }
      ],
      "stateMutability": "view",
      "type": "function"
    },
    {
      "inputs": [],
      "name": "totalSupply",
      "outputs": [
        {
          "internalType": "uint256",
          "name": "",
          "type": "uint256"
        }
      ],
      "stateMutability": "view",
      "type": "function"
    },
    {
      "inputs": [
        {
          "internalType": "address",
          "name": "from",
          "type": "address"
        },
        {
          "internalType": "address",
          "name": "to",
          "type": "address"
        },
        {
          "internalType": "uint256",
          "name": "tokenId",
          "type": "uint256"
        }
      ],
      "name": "transferFrom",
      "outputs": [],
      "stateMutability": "nonpayable",
      "type": "function"
    }
  ],
  "bytecode": "0x60806040523480156200001157600080fd5b50620000226200002860201b60201c565b620001d3565b600060019054906101000a900460ff16156200007b576040517f08c379a0000000000000000000000000000000000000000000000000000000008152600401620000729062000127565b60405180910390fd5b60ff801660008054906101000a900460ff1660ff161015620000ed5760ff6000806101000a81548160ff021916908360ff1602179055507f7f26b83ff96e1f2b6a682f133852f6798a09c465da95921460cefb384740249860ff604051620000e4919062000149565b60405180910390a15b565b6000620000fe60278362000166565b91506200010b8262000184565b604082019050919050565b620001218162000177565b82525050565b600060208201905081810360008301526200014281620000ef565b9050919050565b600060208201905062000160600083018462000116565b92915050565b600082825260208201905092915050565b600060ff82169050919050565b7f496e697469616c697a61626c653a20636f6e747261637420697320696e69746960008201527f616c697a696e6700000000000000000000000000000000000000000000000000602082015250565b61415580620001e36000396000f3fe608060405234801561001057600080fd5b506004361061018e5760003560e01c80634f6ccce7116100de578063a217fddf11610097578063c87b56dd11610071578063c87b56dd146104a3578063d5391393146104d3578063d547741f146104f1578063e985e9c51461050d5761018e565b8063a217fddf1461044d578063a22cb4651461046b578063b88d4fde146104875761018e565b80634f6ccce7146103535780636352211e1461038357806370a08231146103b357806391d14854146103e357806395d89b4114610413578063a1448194146104315761018e565b8063248a9ca31161014b57806336568abe1161012557806336568abe146102e357806342842e0e146102ff57806342966c681461031b5780634cd88b76146103375761018e565b8063248a9ca3146102675780632f2ff15d146102975780632f745c59146102b35761018e565b806301ffc9a71461019357806306fdde03146101c3578063081812fc146101e1578063095ea7b31461021157806318160ddd1461022d57806323b872dd1461024b575b600080fd5b6101ad60048036038101906101a89190612f66565b61053d565b6040516101ba9190613499565b60405180910390f35b6101cb61054f565b6040516101d891906134ea565b60405180910390f35b6101fb60048036038101906101f69190613024565b6105e1565b6040516102089190613432565b60405180910390f35b61022b60048036038101906102269190612ec5565b610627565b005b61023561073f565b604051610242919061372c565b60405180910390f35b61026560048036038101906102609190612dbf565b61074c565b005b610281600480360381019061027c9190612f01565b6107ac565b60405161028e91906134b4565b60405180910390f35b6102b160048036038101906102ac9190612f2a565b6107cc565b005b6102cd60048036038101906102c89190612ec5565b6107ed565b6040516102da919061372c565b60405180910390f35b6102fd60048036038101906102f89190612f2a565b610892565b005b61031960048036038101906103149190612dbf565b610915565b005b61033560048036038101906103309190613024565b610935565b005b610351600480360381019061034c9190612fb8565b610991565b005b61036d60048036038101906103689190613024565b610b22565b60405161037a919061372c565b60405180910390f35b61039d60048036038101906103989190613024565b610bb9565b6040516103aa9190613432565b60405180910390f35b6103cd60048036038101906103c89190612d5a565b610c6b565b6040516103da919061372c565b60405180910390f35b6103fd60048036038101906103f89190612f2a565b610d23565b60405161040a9190613499565b60405180910390f35b61041b610d8e565b60405161042891906134ea565b60405180910390f35b61044b60048036038101906104469190612ec5565b610e20565b005b610455610e59565b60405161046291906134b4565b60405180910390f35b61048560048036038101906104809190612e89565b610e60565b005b6104a1600480360381019061049c9190612e0e565b610e76565b005b6104bd60048036038101906104b89190613024565b610ed8565b6040516104ca91906134ea565b60405180910390f35b6104db610f40565b6040516104e891906134b4565b60405180910390f35b61050b60048036038101906105069190612f2a565b610f64565b005b61052760048036038101906105229190612d83565b610f85565b6040516105349190613499565b60405180910390f35b600061054882611019565b9050919050565b60606065805461055e90613a2f565b80601f016020809104026020016040519081016040528092919081815260200182805461058a90613a2f565b80156105d75780601f106105ac576101008083540402835291602001916105d7565b820191906000526020600020905b8154815290600101906020018083116105ba57829003601f168201915b5050505050905090565b60006105ec82611093565b6069600083815260200190815260200160002060009054906101000a900473ffffffffffffffffffffffffffffffffffffffff169050919050565b600061063282610bb9565b90508073ffffffffffffffffffffffffffffffffffffffff168373ffffffffffffffffffffffffffffffffffffffff1614156106a3576040517f08c379a000000000000000000000000000000000000000000000000000000000815260040161069a9061368c565b60405180910390fd5b8073ffffffffffffffffffffffffffffffffffffffff166106c26110de565b73ffffffffffffffffffffffffffffffffffffffff1614806106f157506106f0816106eb6110de565b610f85565b5b610730576040517f08c379a00000000000000000000000000000000000000000000000000000000081526004016107279061362c565b60405180910390fd5b61073a83836110e6565b505050565b6000609980549050905090565b61075d6107576110de565b8261119f565b61079c576040517f08c379a0000000000000000000000000000000000000000000000000000000008152600401610793906136ec565b60405180910390fd5b6107a7838383611234565b505050565b600060fb6000838152602001908152602001600020600101549050919050565b6107d5826107ac565b6107de8161149b565b6107e883836114af565b505050565b60006107f883610c6b565b8210610839576040517f08c379a00000000000000000000000000000000000000000000000000000000081526004016108309061352c565b60405180910390fd5b609760008473ffffffffffffffffffffffffffffffffffffffff1673ffffffffffffffffffffffffffffffffffffffff168152602001908152602001600020600083815260200190815260200160002054905092915050565b61089a6110de565b73ffffffffffffffffffffffffffffffffffffffff168173ffffffffffffffffffffffffffffffffffffffff1614610907576040517f08c379a00000000000000000000000000000000000000000000000000000000081526004016108fe9061370c565b60405180910390fd5b6109118282611590565b5050565b61093083838360405180602001604052806000815250610e76565b505050565b6109466109406110de565b8261119f565b610985576040517f08c379a000000000000000000000000000000000000000000000000000000000815260040161097c906136ec565b60405180910390fd5b61098e81611672565b50565b60008060019054906101000a900460ff161590508080156109c25750600160008054906101000a900460ff1660ff16105b806109ef57506109d13061178f565b1580156109ee5750600160008054906101000a900460ff1660ff16145b5b610a2e576040517f08c379a0000000000000000000000000000000000000000000000000000000008152600401610a259061360c565b60405180910390fd5b60016000806101000a81548160ff021916908360ff1602179055508015610a6b576001600060016101000a81548160ff0219169083151502179055505b610a7583836117b2565b610a7d61180f565b610a85611860565b610a8d6118b1565b610a9a6000801b336114af565b610ac47f9f2df0fed2c77648de5860a4cc508cd0818c85b8b8a1ab4ceeef8d981c8956a6336114af565b8015610b1d5760008060016101000a81548160ff0219169083151502179055507f7f26b83ff96e1f2b6a682f133852f6798a09c465da95921460cefb38474024986001604051610b1491906134cf565b60405180910390a15b505050565b6000610b2c61073f565b8210610b6d576040517f08c379a0000000000000000000000000000000000000000000000000000000008152600401610b64906136ac565b60405180910390fd5b60998281548110610ba7577f4e487b7100000000000000000000000000000000000000000000000000000000600052603260045260246000fd5b90600052602060002001549050919050565b6000806067600084815260200190815260200160002060009054906101000a900473ffffffffffffffffffffffffffffffffffffffff169050600073ffffffffffffffffffffffffffffffffffffffff168173ffffffffffffffffffffffffffffffffffffffff161415610c62576040517f08c379a0000000000000000000000000000000000000000000000000000000008152600401610c599061366c565b60405180910390fd5b80915050919050565b60008073ffffffffffffffffffffffffffffffffffffffff168273ffffffffffffffffffffffffffffffffffffffff161415610cdc576040517f08c379a0000000000000000000000000000000000000000000000000000000008152600401610cd3906135ec565b60405180910390fd5b606860008373ffffffffffffffffffffffffffffffffffffffff1673ffffffffffffffffffffffffffffffffffffffff168152602001908152602001600020549050919050565b600060fb600084815260200190815260200160002060000160008373ffffffffffffffffffffffffffffffffffffffff1673ffffffffffffffffffffffffffffffffffffffff16815260200190815260200160002060009054906101000a900460ff16905092915050565b606060668054610d9d90613a2f565b80601f0160208091040260200160405190810160405280929190818152602001828054610dc990613a2f565b8015610e165780601f10610deb57610100808354040283529160200191610e16565b820191906000526020600020905b815481529060010190602001808311610df957829003601f168201915b5050505050905090565b7f9f2df0fed2c77648de5860a4cc508cd0818c85b8b8a1ab4ceeef8d981c8956a6610e4a8161149b565b610e548383611902565b505050565b6000801b81565b610e72610e6b6110de565b8383611920565b5050565b610e87610e816110de565b8361119f565b610ec6576040517f08c379a0000000000000000000000000000000000000000000000000000000008152600401610ebd906136ec565b60405180910390fd5b610ed284848484611a8d565b50505050565b6060610ee382611093565b6000610eed611ae9565b90506000815111610f0d5760405180602001604052806000815250610f38565b80610f1784611b00565b604051602001610f289291906133d4565b6040516020818303038152906040525b915050919050565b7f9f2df0fed2c77648de5860a4cc508cd0818c85b8b8a1ab4ceeef8d981c8956a681565b610f6d826107ac565b610f768161149b565b610f808383611590565b505050565b6000606a60008473ffffffffffffffffffffffffffffffffffffffff1673ffffffffffffffffffffffffffffffffffffffff16815260200190815260200160002060008373ffffffffffffffffffffffffffffffffffffffff1673ffffffffffffffffffffffffffffffffffffffff16815260200190815260200160002060009054906101000a900460ff16905092915050565b60007f7965db0b000000000000000000000000000000000000000000000000000000007bffffffffffffffffffffffffffffffffffffffffffffffffffffffff1916827bffffffffffffffffffffffffffffffffffffffffffffffffffffffff1916148061108c575061108b82611cad565b5b9050919050565b61109c81611d27565b6110db576040517f08c379a00000000000000000000000000000000000000000000000000000000081526004016110d29061366c565b60405180910390fd5b50565b600033905090565b816069600083815260200190815260200160002060006101000a81548173ffffffffffffffffffffffffffffffffffffffff021916908373ffffffffffffffffffffffffffffffffffffffff160217905550808273ffffffffffffffffffffffffffffffffffffffff1661115983610bb9565b73ffffffffffffffffffffffffffffffffffffffff167f8c5be1e5ebec7d5bd14f71427d1e84f3dd0314c0f7b2291e5b200ac8c7c3b92560405160405180910390a45050565b6000806111ab83610bb9565b90508073ffffffffffffffffffffffffffffffffffffffff168473ffffffffffffffffffffffffffffffffffffffff1614806111ed57506111ec8185610f85565b5b8061122b57508373ffffffffffffffffffffffffffffffffffffffff16611213846105e1565b73ffffffffffffffffffffffffffffffffffffffff16145b91505092915050565b8273ffffffffffffffffffffffffffffffffffffffff1661125482610bb9565b73ffffffffffffffffffffffffffffffffffffffff16146112aa576040517f08c379a00000000000000000000000000000000000000000000000000000000081526004016112a19061356c565b60405180910390fd5b600073ffffffffffffffffffffffffffffffffffffffff168273ffffffffffffffffffffffffffffffffffffffff16141561131a576040517f08c379a0000000000000000000000000000000000000000000000000000000008152600401611311906135ac565b60405180910390fd5b611325838383611d93565b6113306000826110e6565b6001606860008573ffffffffffffffffffffffffffffffffffffffff1673ffffffffffffffffffffffffffffffffffffffff168152602001908152602001600020600082825461138091906138f2565b925050819055506001606860008473ffffffffffffffffffffffffffffffffffffffff1673ffffffffffffffffffffffffffffffffffffffff16815260200190815260200160002060008282546113d79190613811565b92505081905550816067600083815260200190815260200160002060006101000a81548173ffffffffffffffffffffffffffffffffffffffff021916908373ffffffffffffffffffffffffffffffffffffffff160217905550808273ffffffffffffffffffffffffffffffffffffffff168473ffffffffffffffffffffffffffffffffffffffff167fddf252ad1be2c89b69c2b068fc378daa952ba7f163c4a11628f55a4df523b3ef60405160405180910390a4611496838383611da3565b505050565b6114ac816114a76110de565b611da8565b50565b6114b98282610d23565b61158c57600160fb600084815260200190815260200160002060000160008373ffffffffffffffffffffffffffffffffffffffff1673ffffffffffffffffffffffffffffffffffffffff16815260200190815260200160002060006101000a81548160ff0219169083151502179055506115316110de565b73ffffffffffffffffffffffffffffffffffffffff168173ffffffffffffffffffffffffffffffffffffffff16837f2f8788117e7eff1d82e926ec794901d17c78024a50270940304540a733656f0d60405160405180910390a45b5050565b61159a8282610d23565b1561166e57600060fb600084815260200190815260200160002060000160008373ffffffffffffffffffffffffffffffffffffffff1673ffffffffffffffffffffffffffffffffffffffff16815260200190815260200160002060006101000a81548160ff0219169083151502179055506116136110de565b73ffffffffffffffffffffffffffffffffffffffff168173ffffffffffffffffffffffffffffffffffffffff16837ff6391f5c32d9c69d2a47ea670b442974b53935d1edc7fd64eb21e047a839171b60405160405180910390a45b5050565b600061167d82610bb9565b905061168b81600084611d93565b6116966000836110e6565b6001606860008373ffffffffffffffffffffffffffffffffffffffff1673ffffffffffffffffffffffffffffffffffffffff16815260200190815260200160002060008282546116e691906138f2565b925050819055506067600083815260200190815260200160002060006101000a81549073ffffffffffffffffffffffffffffffffffffffff021916905581600073ffffffffffffffffffffffffffffffffffffffff168273ffffffffffffffffffffffffffffffffffffffff167fddf252ad1be2c89b69c2b068fc378daa952ba7f163c4a11628f55a4df523b3ef60405160405180910390a461178b81600084611da3565b5050565b6000808273ffffffffffffffffffffffffffffffffffffffff163b119050919050565b600060019054906101000a900460ff16611801576040517f08c379a00000000000000000000000000000000000000000000000000000000081526004016117f8906136cc565b60405180910390fd5b61180b8282611e45565b5050565b600060019054906101000a900460ff1661185e576040517f08c379a0000000000000000000000000000000000000000000000000000000008152600401611855906136cc565b60405180910390fd5b565b600060019054906101000a900460ff166118af576040517f08c379a00000000000000000000000000000000000000000000000000000000081526004016118a6906136cc565b60405180910390fd5b565b600060019054906101000a900460ff16611900576040517f08c379a00000000000000000000000000000000000000000000000000000000081526004016118f7906136cc565b60405180910390fd5b565b61191c828260405180602001604052806000815250611ec6565b5050565b8173ffffffffffffffffffffffffffffffffffffffff168373ffffffffffffffffffffffffffffffffffffffff16141561198f576040517f08c379a0000000000000000000000000000000000000000000000000000000008152600401611986906135cc565b60405180910390fd5b80606a60008573ffffffffffffffffffffffffffffffffffffffff1673ffffffffffffffffffffffffffffffffffffffff16815260200190815260200160002060008473ffffffffffffffffffffffffffffffffffffffff1673ffffffffffffffffffffffffffffffffffffffff16815260200190815260200160002060006101000a81548160ff0219169083151502179055508173ffffffffffffffffffffffffffffffffffffffff168373ffffffffffffffffffffffffffffffffffffffff167f17307eab39ab6107e8899845ad3d59bd9653f200f220920489ca2b5937696c3183604051611a809190613499565b60405180910390a3505050565b611a98848484611234565b611aa484848484611f21565b611ae3576040517f08c379a0000000000000000000000000000000000000000000000000000000008152600401611ada9061354c565b60405180910390fd5b50505050565b606060405180602001604052806000815250905090565b60606000821415611b48576040518060400160405280600181526020017f30000000000000000000000000000000000000000000000000000000000000008152509050611ca8565b600082905060005b60008214611b7a578080611b6390613a92565b915050600a82611b739190613867565b9150611b50565b60008167ffffffffffffffff811115611bbc577f4e487b7100000000000000000000000000000000000000000000000000000000600052604160045260246000fd5b6040519080825280601f01601f191660200182016040528015611bee5781602001600182028036833780820191505090505b5090505b60008514611ca157600182611c0791906138f2565b9150600a85611c169190613adb565b6030611c229190613811565b60f81b818381518110611c5e577f4e487b7100000000000000000000000000000000000000000000000000000000600052603260045260246000fd5b60200101907effffffffffffffffffffffffffffffffffffffffffffffffffffffffffffff1916908160001a905350600a85611c9a9190613867565b9450611bf2565b8093505050505b919050565b60007f780e9d63000000000000000000000000000000000000000000000000000000007bffffffffffffffffffffffffffffffffffffffffffffffffffffffff1916827bffffffffffffffffffffffffffffffffffffffffffffffffffffffff19161480611d205750611d1f826120b8565b5b9050919050565b60008073ffffffffffffffffffffffffffffffffffffffff166067600084815260200190815260200160002060009054906101000a900473ffffffffffffffffffffffffffffffffffffffff1673ffffffffffffffffffffffffffffffffffffffff1614159050919050565b611d9e83838361219a565b505050565b505050565b611db28282610d23565b611e4157611dd78173ffffffffffffffffffffffffffffffffffffffff1660146122ae565b611de58360001c60206122ae565b604051602001611df69291906133f8565b6040516020818303038152906040526040517f08c379a0000000000000000000000000000000000000000000000000000000008152600401611e3891906134ea565b60405180910390fd5b5050565b600060019054906101000a900460ff16611e94576040517f08c379a0000000000000000000000000000000000000000000000000000000008152600401611e8b906136cc565b60405180910390fd5b8160659080519060200190611eaa929190612b69565b508060669080519060200190611ec1929190612b69565b505050565b611ed083836125a8565b611edd6000848484611f21565b611f1c576040517f08c379a0000000000000000000000000000000000000000000000000000000008152600401611f139061354c565b60405180910390fd5b505050565b6000611f428473ffffffffffffffffffffffffffffffffffffffff1661178f565b156120ab578373ffffffffffffffffffffffffffffffffffffffff1663150b7a02611f6b6110de565b8786866040518563ffffffff1660e01b8152600401611f8d949392919061344d565b602060405180830381600087803b158015611fa757600080fd5b505af1925050508015611fd857506040513d601f19601f82011682018060405250810190611fd59190612f8f565b60015b61205b573d8060008114612008576040519150601f19603f3d011682016040523d82523d6000602084013e61200d565b606091505b50600081511415612053576040517f08c379a000000000000000000000000000000000000000000000000000000000815260040161204a9061354c565b60405180910390fd5b805181602001fd5b63150b7a0260e01b7bffffffffffffffffffffffffffffffffffffffffffffffffffffffff1916817bffffffffffffffffffffffffffffffffffffffffffffffffffffffff1916149150506120b0565b600190505b949350505050565b60007f80ac58cd000000000000000000000000000000000000000000000000000000007bffffffffffffffffffffffffffffffffffffffffffffffffffffffff1916827bffffffffffffffffffffffffffffffffffffffffffffffffffffffff1916148061218357507f5b5e139f000000000000000000000000000000000000000000000000000000007bffffffffffffffffffffffffffffffffffffffffffffffffffffffff1916827bffffffffffffffffffffffffffffffffffffffffffffffffffffffff1916145b80612193575061219282612782565b5b9050919050565b6121a58383836127ec565b600073ffffffffffffffffffffffffffffffffffffffff168373ffffffffffffffffffffffffffffffffffffffff1614156121e8576121e3816127f1565b612227565b8173ffffffffffffffffffffffffffffffffffffffff168373ffffffffffffffffffffffffffffffffffffffff161461222657612225838261283a565b5b5b600073ffffffffffffffffffffffffffffffffffffffff168273ffffffffffffffffffffffffffffffffffffffff16141561226a57612265816129a7565b6122a9565b8273ffffffffffffffffffffffffffffffffffffffff168273ffffffffffffffffffffffffffffffffffffffff16146122a8576122a78282612aea565b5b5b505050565b6060600060028360026122c19190613898565b6122cb9190613811565b67ffffffffffffffff81111561230a577f4e487b7100000000000000000000000000000000000000000000000000000000600052604160045260246000fd5b6040519080825280601f01601f19166020018201604052801561233c5781602001600182028036833780820191505090505b5090507f30000000000000000000000000000000000000000000000000000000000000008160008151811061239a577f4e487b7100000000000000000000000000000000000000000000000000000000600052603260045260246000fd5b60200101907effffffffffffffffffffffffffffffffffffffffffffffffffffffffffffff1916908160001a9053507f780000000000000000000000000000000000000000000000000000000000000081600181518110612424577f4e487b7100000000000000000000000000000000000000000000000000000000600052603260045260246000fd5b60200101907effffffffffffffffffffffffffffffffffffffffffffffffffffffffffffff1916908160001a905350600060018460026124649190613898565b61246e9190613811565b90505b600181111561255a577f3031323334353637383961626364656600000000000000000000000000000000600f8616601081106124d6577f4e487b7100000000000000000000000000000000000000000000000000000000600052603260045260246000fd5b1a60f81b828281518110612513577f4e487b7100000000000000000000000000000000000000000000000000000000600052603260045260246000fd5b60200101907effffffffffffffffffffffffffffffffffffffffffffffffffffffffffffff1916908160001a905350600485901c94508061255390613a05565b9050612471565b506000841461259e576040517f08c379a00000000000000000000000000000000000000000000000000000000081526004016125959061350c565b60405180910390fd5b8091505092915050565b600073ffffffffffffffffffffffffffffffffffffffff168273ffffffffffffffffffffffffffffffffffffffff161415612618576040517f08c379a000000000000000000000000000000000000000000000000000000000815260040161260f9061364c565b60405180910390fd5b61262181611d27565b15612661576040517f08c379a00000000000000000000000000000000000000000000000000000000081526004016126589061358c565b60405180910390fd5b61266d60008383611d93565b6001606860008473ffffffffffffffffffffffffffffffffffffffff1673ffffffffffffffffffffffffffffffffffffffff16815260200190815260200160002060008282546126bd9190613811565b92505081905550816067600083815260200190815260200160002060006101000a81548173ffffffffffffffffffffffffffffffffffffffff021916908373ffffffffffffffffffffffffffffffffffffffff160217905550808273ffffffffffffffffffffffffffffffffffffffff16600073ffffffffffffffffffffffffffffffffffffffff167fddf252ad1be2c89b69c2b068fc378daa952ba7f163c4a11628f55a4df523b3ef60405160405180910390a461277e60008383611da3565b5050565b60007f01ffc9a7000000000000000000000000000000000000000000000000000000007bffffffffffffffffffffffffffffffffffffffffffffffffffffffff1916827bffffffffffffffffffffffffffffffffffffffffffffffffffffffff1916149050919050565b505050565b609980549050609a600083815260200190815260200160002081905550609981908060018154018082558091505060019003906000526020600020016000909190919091505550565b6000600161284784610c6b565b61285191906138f2565b9050600060986000848152602001908152602001600020549050818114612936576000609760008673ffffffffffffffffffffffffffffffffffffffff1673ffffffffffffffffffffffffffffffffffffffff168152602001908152602001600020600084815260200190815260200160002054905080609760008773ffffffffffffffffffffffffffffffffffffffff1673ffffffffffffffffffffffffffffffffffffffff168152602001908152602001600020600084815260200190815260200160002081905550816098600083815260200190815260200160002081905550505b6098600084815260200190815260200160002060009055609760008573ffffffffffffffffffffffffffffffffffffffff1673ffffffffffffffffffffffffffffffffffffffff16815260200190815260200160002060008381526020019081526020016000206000905550505050565b600060016099805490506129bb91906138f2565b90506000609a6000848152602001908152602001600020549050600060998381548110612a11577f4e487b7100000000000000000000000000000000000000000000000000000000600052603260045260246000fd5b906000526020600020015490508060998381548110612a59577f4e487b7100000000000000000000000000000000000000000000000000000000600052603260045260246000fd5b906000526020600020018190555081609a600083815260200190815260200160002081905550609a6000858152602001908152602001600020600090556099805480612ace577f4e487b7100000000000000000000000000000000000000000000000000000000600052603160045260246000fd5b6001900381819060005260206000200160009055905550505050565b6000612af583610c6b565b905081609760008573ffffffffffffffffffffffffffffffffffffffff1673ffffffffffffffffffffffffffffffffffffffff168152602001908152602001600020600083815260200190815260200160002081905550806098600084815260200190815260200160002081905550505050565b828054612b7590613a2f565b90600052602060002090601f016020900481019282612b975760008555612bde565b82601f10612bb057805160ff1916838001178555612bde565b82800160010185558215612bde579182015b82811115612bdd578251825591602001919060010190612bc2565b5b509050612beb9190612bef565b5090565b5b80821115612c08576000816000905550600101612bf0565b5090565b6000612c1f612c1a8461376c565b613747565b905082815260208101848484011115612c3757600080fd5b612c428482856139c3565b509392505050565b6000612c5d612c588461379d565b613747565b905082815260208101848484011115612c7557600080fd5b612c808482856139c3565b509392505050565b600081359050612c97816140ac565b92915050565b600081359050612cac816140c3565b92915050565b600081359050612cc1816140da565b92915050565b600081359050612cd6816140f1565b92915050565b600081519050612ceb816140f1565b92915050565b600082601f830112612d0257600080fd5b8135612d12848260208601612c0c565b91505092915050565b600082601f830112612d2c57600080fd5b8135612d3c848260208601612c4a565b91505092915050565b600081359050612d5481614108565b92915050565b600060208284031215612d6c57600080fd5b6000612d7a84828501612c88565b91505092915050565b60008060408385031215612d9657600080fd5b6000612da485828601612c88565b9250506020612db585828601612c88565b9150509250929050565b600080600060608486031215612dd457600080fd5b6000612de286828701612c88565b9350506020612df386828701612c88565b9250506040612e0486828701612d45565b9150509250925092565b60008060008060808587031215612e2457600080fd5b6000612e3287828801612c88565b9450506020612e4387828801612c88565b9350506040612e5487828801612d45565b925050606085013567ffffffffffffffff811115612e7157600080fd5b612e7d87828801612cf1565b91505092959194509250565b60008060408385031215612e9c57600080fd5b6000612eaa85828601612c88565b9250506020612ebb85828601612c9d565b9150509250929050565b60008060408385031215612ed857600080fd5b6000612ee685828601612c88565b9250506020612ef785828601612d45565b9150509250929050565b600060208284031215612f1357600080fd5b6000612f2184828501612cb2565b91505092915050565b60008060408385031215612f3d57600080fd5b6000612f4b85828601612cb2565b9250506020612f5c85828601612c88565b9150509250929050565b600060208284031215612f7857600080fd5b6000612f8684828501612cc7565b91505092915050565b600060208284031215612fa157600080fd5b6000612faf84828501612cdc565b91505092915050565b60008060408385031215612fcb57600080fd5b600083013567ffffffffffffffff811115612fe557600080fd5b612ff185828601612d1b565b925050602083013567ffffffffffffffff81111561300e57600080fd5b61301a85828601612d1b565b9150509250929050565b60006020828403121561303657600080fd5b600061304484828501612d45565b91505092915050565b61305681613926565b82525050565b61306581613938565b82525050565b61307481613944565b82525050565b6000613085826137ce565b61308f81856137e4565b935061309f8185602086016139d2565b6130a881613bc8565b840191505092915050565b6130bc816139b1565b82525050565b60006130cd826137d9565b6130d781856137f5565b93506130e78185602086016139d2565b6130f081613bc8565b840191505092915050565b6000613106826137d9565b6131108185613806565b93506131208185602086016139d2565b80840191505092915050565b60006131396020836137f5565b915061314482613bd9565b602082019050919050565b600061315c602b836137f5565b915061316782613c02565b604082019050919050565b600061317f6032836137f5565b915061318a82613c51565b604082019050919050565b60006131a26025836137f5565b91506131ad82613ca0565b604082019050919050565b60006131c5601c836137f5565b91506131d082613cef565b602082019050919050565b60006131e86024836137f5565b91506131f382613d18565b604082019050919050565b600061320b6019836137f5565b915061321682613d67565b602082019050919050565b600061322e6029836137f5565b915061323982613d90565b604082019050919050565b6000613251602e836137f5565b915061325c82613ddf565b604082019050919050565b6000613274603e836137f5565b915061327f82613e2e565b604082019050919050565b60006132976020836137f5565b91506132a282613e7d565b602082019050919050565b60006132ba6018836137f5565b91506132c582613ea6565b602082019050919050565b60006132dd6021836137f5565b91506132e882613ecf565b604082019050919050565b6000613300602c836137f5565b915061330b82613f1e565b604082019050919050565b6000613323602b836137f5565b915061332e82613f6d565b604082019050919050565b6000613346601783613806565b915061335182613fbc565b601782019050919050565b6000613369602e836137f5565b915061337482613fe5565b604082019050919050565b600061338c601183613806565b915061339782614034565b601182019050919050565b60006133af602f836137f5565b91506133ba8261405d565b604082019050919050565b6133ce8161399a565b82525050565b60006133e082856130fb565b91506133ec82846130fb565b91508190509392505050565b600061340382613339565b915061340f82856130fb565b915061341a8261337f565b915061342682846130fb565b91508190509392505050565b6000602082019050613447600083018461304d565b92915050565b6000608082019050613462600083018761304d565b61346f602083018661304d565b61347c60408301856133c5565b818103606083015261348e818461307a565b905095945050505050565b60006020820190506134ae600083018461305c565b92915050565b60006020820190506134c9600083018461306b565b92915050565b60006020820190506134e460008301846130b3565b92915050565b6000602082019050818103600083015261350481846130c2565b905092915050565b600060208201905081810360008301526135258161312c565b9050919050565b600060208201905081810360008301526135458161314f565b9050919050565b6000602082019050818103600083015261356581613172565b9050919050565b6000602082019050818103600083015261358581613195565b9050919050565b600060208201905081810360008301526135a5816131b8565b9050919050565b600060208201905081810360008301526135c5816131db565b9050919050565b600060208201905081810360008301526135e5816131fe565b9050919050565b6000602082019050818103600083015261360581613221565b9050919050565b6000602082019050818103600083015261362581613244565b9050919050565b6000602082019050818103600083015261364581613267565b9050919050565b600060208201905081810360008301526136658161328a565b9050919050565b60006020820190508181036000830152613685816132ad565b9050919050565b600060208201905081810360008301526136a5816132d0565b9050919050565b600060208201905081810360008301526136c5816132f3565b9050919050565b600060208201905081810360008301526136e581613316565b9050919050565b600060208201905081810360008301526137058161335c565b9050919050565b60006020820190508181036000830152613725816133a2565b9050919050565b600060208201905061374160008301846133c5565b92915050565b6000613751613762565b905061375d8282613a61565b919050565b6000604051905090565b600067ffffffffffffffff82111561378757613786613b99565b5b61379082613bc8565b9050602081019050919050565b600067ffffffffffffffff8211156137b8576137b7613b99565b5b6137c182613bc8565b9050602081019050919050565b600081519050919050565b600081519050919050565b600082825260208201905092915050565b600082825260208201905092915050565b600081905092915050565b600061381c8261399a565b91506138278361399a565b9250827fffffffffffffffffffffffffffffffffffffffffffffffffffffffffffffffff0382111561385c5761385b613b0c565b5b828201905092915050565b60006138728261399a565b915061387d8361399a565b92508261388d5761388c613b3b565b5b828204905092915050565b60006138a38261399a565b91506138ae8361399a565b9250817fffffffffffffffffffffffffffffffffffffffffffffffffffffffffffffffff04831182151516156138e7576138e6613b0c565b5b828202905092915050565b60006138fd8261399a565b91506139088361399a565b92508282101561391b5761391a613b0c565b5b828203905092915050565b60006139318261397a565b9050919050565b60008115159050919050565b6000819050919050565b60007fffffffff0000000000000000000000000000000000000000000000000000000082169050919050565b600073ffffffffffffffffffffffffffffffffffffffff82169050919050565b6000819050919050565b600060ff82169050919050565b60006139bc826139a4565b9050919050565b82818337600083830152505050565b60005b838110156139f05780820151818401526020810190506139d5565b838111156139ff576000848401525b50505050565b6000613a108261399a565b91506000821415613a2457613a23613b0c565b5b600182039050919050565b60006002820490506001821680613a4757607f821691505b60208210811415613a5b57613a5a613b6a565b5b50919050565b613a6a82613bc8565b810181811067ffffffffffffffff82111715613a8957613a88613b99565b5b80604052505050565b6000613a9d8261399a565b91507fffffffffffffffffffffffffffffffffffffffffffffffffffffffffffffffff821415613ad057613acf613b0c565b5b600182019050919050565b6000613ae68261399a565b9150613af18361399a565b925082613b0157613b00613b3b565b5b828206905092915050565b7f4e487b7100000000000000000000000000000000000000000000000000000000600052601160045260246000fd5b7f4e487b7100000000000000000000000000000000000000000000000000000000600052601260045260246000fd5b7f4e487b7100000000000000000000000000000000000000000000000000000000600052602260045260246000fd5b7f4e487b7100000000000000000000000000000000000000000000000000000000600052604160045260246000fd5b6000601f19601f8301169050919050565b7f537472696e67733a20686578206c656e67746820696e73756666696369656e74600082015250565b7f455243373231456e756d657261626c653a206f776e657220696e646578206f7560008201527f74206f6620626f756e6473000000000000000000000000000000000000000000602082015250565b7f4552433732313a207472616e7366657220746f206e6f6e20455243373231526560008201527f63656976657220696d706c656d656e7465720000000000000000000000000000602082015250565b7f4552433732313a207472616e736665722066726f6d20696e636f72726563742060008201527f6f776e6572000000000000000000000000000000000000000000000000000000602082015250565b7f4552433732313a20746f6b656e20616c7265616479206d696e74656400000000600082015250565b7f4552433732313a207472616e7366657220746f20746865207a65726f2061646460008201527f7265737300000000000000000000000000000000000000000000000000000000602082015250565b7f4552433732313a20617070726f766520746f2063616c6c657200000000000000600082015250565b7f4552433732313a2061646472657373207a65726f206973206e6f74206120766160008201527f6c6964206f776e65720000000000000000000000000000000000000000000000602082015250565b7f496e697469616c697a61626c653a20636f6e747261637420697320616c72656160008201527f647920696e697469616c697a6564000000000000000000000000000000000000602082015250565b7f4552433732313a20617070726f76652063616c6c6572206973206e6f7420746f60008201527f6b656e206f776e6572206e6f7220617070726f76656420666f7220616c6c0000602082015250565b7f4552433732313a206d696e7420746f20746865207a65726f2061646472657373600082015250565b7f4552433732313a20696e76616c696420746f6b656e2049440000000000000000600082015250565b7f4552433732313a20617070726f76616c20746f2063757272656e74206f776e6560008201527f7200000000000000000000000000000000000000000000000000000000000000602082015250565b7f455243373231456e756d657261626c653a20676c6f62616c20696e646578206f60008201527f7574206f6620626f756e64730000000000000000000000000000000000000000602082015250565b7f496e697469616c697a61626c653a20636f6e7472616374206973206e6f74206960008201527f6e697469616c697a696e67000000000000000000000000000000000000000000602082015250565b7f416363657373436f6e74726f6c3a206163636f756e7420000000000000000000600082015250565b7f4552433732313a2063616c6c6572206973206e6f7420746f6b656e206f776e6560008201527f72206e6f7220617070726f766564000000000000000000000000000000000000602082015250565b7f206973206d697373696e6720726f6c6520000000000000000000000000000000600082015250565b7f416363657373436f6e74726f6c3a2063616e206f6e6c792072656e6f756e636560008201527f20726f6c657320666f722073656c660000000000000000000000000000000000602082015250565b6140b581613926565b81146140c057600080fd5b50565b6140cc81613938565b81146140d757600080fd5b50565b6140e381613944565b81146140ee57600080fd5b50565b6140fa8161394e565b811461410557600080fd5b50565b6141118161399a565b811461411c57600080fd5b5056fea26469706673582212200cca5486decd6b6c7ea11aaacb9016cf9a65a4bfbb5fcc4a97c260c51694614864736f6c63430008020033",
  "linkReferences": {},
  "deployedLinkReferences": {}
}