{
  "_format": "hh-sol-artifact-1",
  "contractName": "EvmSide",
  "sourceName": "contracts/EvmSideERC721.sol",
  "abi": [
    {
      "anonymous": false,
      "inputs": [
        {
          "indexed": true,
          "internalType": "address",
          "name": "mappedToken",
          "type": "address"
        },
        {
          "indexed": true,
          "internalType": "address",
          "name": "evmAccount",
          "type": "address"
        },
        {
          "indexed": true,
          "internalType": "address",
          "name": "cfxAccount",
          "type": "address"
        },
        {
          "indexed": false,
          "internalType": "uint256[]",
          "name": "tokenIds",
          "type": "uint256[]"
        }
      ],
      "name": "LockedMappedToken",
      "type": "event"
    },
    {
      "anonymous": false,
      "inputs": [
        {
          "indexed": true,
          "internalType": "address",
          "name": "token",
          "type": "address"
        },
        {
          "indexed": true,
          "internalType": "address",
          "name": "evmAccount",
          "type": "address"
        },
        {
          "indexed": true,
          "internalType": "address",
          "name": "cfxAccount",
          "type": "address"
        },
        {
          "indexed": false,
          "internalType": "uint256[]",
          "name": "tokenIds",
          "type": "uint256[]"
        }
      ],
      "name": "LockedToken",
      "type": "event"
    },
    {
      "anonymous": false,
      "inputs": [
        {
          "indexed": true,
          "internalType": "address",
          "name": "previousOwner",
          "type": "address"
        },
        {
          "indexed": true,
          "internalType": "address",
          "name": "newOwner",
          "type": "address"
        }
      ],
      "name": "OwnershipTransferred",
      "type": "event"
    },
    {
      "inputs": [],
      "name": "beacon",
      "outputs": [
        {
          "internalType": "address",
          "name": "",
          "type": "address"
        }
      ],
      "stateMutability": "view",
      "type": "function"
    },
    {
      "inputs": [
        {
          "internalType": "address",
          "name": "_token",
          "type": "address"
        },
        {
          "internalType": "address",
          "name": "_evmAccount",
          "type": "address"
        },
        {
          "internalType": "address",
          "name": "_cfxAccount",
          "type": "address"
        },
        {
          "internalType": "uint256[]",
          "name": "_tokenIds",
          "type": "uint256[]"
        }
      ],
      "name": "burn",
      "outputs": [],
      "stateMutability": "nonpayable",
      "type": "function"
    },
    {
      "inputs": [],
      "name": "cfxSide",
      "outputs": [
        {
          "internalType": "address",
          "name": "",
          "type": "address"
        }
      ],
      "stateMutability": "view",
      "type": "function"
    },
    {
      "inputs": [
        {
          "internalType": "address",
          "name": "",
          "type": "address"
        }
      ],
      "name": "crc721Metadata",
      "outputs": [
        {
          "internalType": "string",
          "name": "name",
          "type": "string"
        },
        {
          "internalType": "string",
          "name": "symbol",
          "type": "string"
        },
        {
          "internalType": "bool",
          "name": "registered",
          "type": "bool"
        }
      ],
      "stateMutability": "view",
      "type": "function"
    },
    {
      "inputs": [
        {
          "internalType": "address",
          "name": "_crc721",
          "type": "address"
        }
      ],
      "name": "createMappedToken",
      "outputs": [],
      "stateMutability": "nonpayable",
      "type": "function"
    },
    {
      "inputs": [
        {
          "internalType": "address",
          "name": "_token",
          "type": "address"
        },
        {
          "internalType": "address",
          "name": "_evmAccount",
          "type": "address"
        },
        {
          "internalType": "address",
          "name": "_cfxAccount",
          "type": "address"
        },
        {
          "internalType": "uint256[]",
          "name": "_tokenIds",
          "type": "uint256[]"
        }
      ],
      "name": "crossToCfx",
      "outputs": [],
      "stateMutability": "nonpayable",
      "type": "function"
    },
    {
      "inputs": [
        {
          "internalType": "address",
          "name": "_token",
          "type": "address"
        }
      ],
      "name": "getTokenData",
      "outputs": [
        {
          "internalType": "string",
          "name": "",
          "type": "string"
        },
        {
          "internalType": "string",
          "name": "",
          "type": "string"
        }
      ],
      "stateMutability": "view",
      "type": "function"
    },
    {
      "inputs": [
        {
          "internalType": "uint256",
          "name": "offset",
          "type": "uint256"
        }
      ],
      "name": "getTokens",
      "outputs": [
        {
          "internalType": "address[]",
          "name": "result",
          "type": "address[]"
        },
        {
          "internalType": "uint256",
          "name": "cnt",
          "type": "uint256"
        }
      ],
      "stateMutability": "view",
      "type": "function"
    },
    {
      "inputs": [
        {
          "internalType": "address",
          "name": "_beacon",
          "type": "address"
        }
      ],
      "name": "initialize",
      "outputs": [],
      "stateMutability": "nonpayable",
      "type": "function"
    },
    {
      "inputs": [],
      "name": "initialized",
      "outputs": [
        {
          "internalType": "bool",
          "name": "",
          "type": "bool"
        }
      ],
      "stateMutability": "view",
      "type": "function"
    },
    {
      "inputs": [
        {
          "internalType": "address",
          "name": "_mappedToken",
          "type": "address"
        },
        {
          "internalType": "address",
          "name": "_cfxAccount",
          "type": "address"
        },
        {
          "internalType": "uint256[]",
          "name": "_tokenIds",
          "type": "uint256[]"
        }
      ],
      "name": "lockMappedToken",
      "outputs": [],
      "stateMutability": "nonpayable",
      "type": "function"
    },
    {
      "inputs": [
        {
          "internalType": "contract IERC721",
          "name": "_token",
          "type": "address"
        },
        {
          "internalType": "address",
          "name": "_cfxAccount",
          "type": "address"
        },
        {
          "internalType": "uint256[]",
          "name": "_tokenIds",
          "type": "uint256[]"
        }
      ],
      "name": "lockToken",
      "outputs": [],
      "stateMutability": "nonpayable",
      "type": "function"
    },
    {
      "inputs": [
        {
          "internalType": "address",
          "name": "_token",
          "type": "address"
        },
        {
          "internalType": "address",
          "name": "_evmAccount",
          "type": "address"
        },
        {
          "internalType": "address",
          "name": "_cfxAccount",
          "type": "address"
        }
      ],
      "name": "lockedMappedToken",
      "outputs": [
        {
          "internalType": "uint256[]",
          "name": "",
          "type": "uint256[]"
        }
      ],
      "stateMutability": "view",
      "type": "function"
    },
    {
      "inputs": [
        {
          "internalType": "address",
          "name": "",
          "type": "address"
        },
        {
          "internalType": "address",
          "name": "",
          "type": "address"
        },
        {
          "internalType": "address",
          "name": "",
          "type": "address"
        },
        {
          "internalType": "uint256",
          "name": "",
          "type": "uint256"
        }
      ],
      "name": "lockedMappedTokens",
      "outputs": [
        {
          "internalType": "uint256",
          "name": "",
          "type": "uint256"
        }
      ],
      "stateMutability": "view",
      "type": "function"
    },
    {
      "inputs": [
        {
          "internalType": "address",
          "name": "_token",
          "type": "address"
        },
        {
          "internalType": "address",
          "name": "_evmAccount",
          "type": "address"
        },
        {
          "internalType": "address",
          "name": "_cfxAccount",
          "type": "address"
        }
      ],
      "name": "lockedToken",
      "outputs": [
        {
          "internalType": "uint256[]",
          "name": "",
          "type": "uint256[]"
        }
      ],
      "stateMutability": "view",
      "type": "function"
    },
    {
      "inputs": [
        {
          "internalType": "address",
          "name": "",
          "type": "address"
        },
        {
          "internalType": "address",
          "name": "",
          "type": "address"
        },
        {
          "internalType": "address",
          "name": "",
          "type": "address"
        },
        {
          "internalType": "uint256",
          "name": "",
          "type": "uint256"
        }
      ],
      "name": "lockedTokens",
      "outputs": [
        {
          "internalType": "uint256",
          "name": "",
          "type": "uint256"
        }
      ],
      "stateMutability": "view",
      "type": "function"
    },
    {
      "inputs": [
        {
          "internalType": "uint256",
          "name": "",
          "type": "uint256"
        }
      ],
      "name": "mappedTokenList",
      "outputs": [
        {
          "internalType": "address",
          "name": "",
          "type": "address"
        }
      ],
      "stateMutability": "view",
      "type": "function"
    },
    {
      "inputs": [
        {
          "internalType": "address",
          "name": "",
          "type": "address"
        }
      ],
      "name": "mappedTokens",
      "outputs": [
        {
          "internalType": "address",
          "name": "",
          "type": "address"
        }
      ],
      "stateMutability": "view",
      "type": "function"
    },
    {
      "inputs": [
        {
          "internalType": "address",
          "name": "_token",
          "type": "address"
        },
        {
          "internalType": "address",
          "name": "_to",
          "type": "address"
        },
        {
          "internalType": "uint256[]",
          "name": "_tokenIds",
          "type": "uint256[]"
        }
      ],
      "name": "mint",
      "outputs": [],
      "stateMutability": "nonpayable",
      "type": "function"
    },
    {
      "inputs": [
        {
          "internalType": "address",
          "name": "_operator",
          "type": "address"
        },
        {
          "internalType": "address",
          "name": "_from",
          "type": "address"
        },
        {
          "internalType": "uint256",
          "name": "_tokenId",
          "type": "uint256"
        },
        {
          "internalType": "bytes",
          "name": "_data",
          "type": "bytes"
        }
      ],
      "name": "onERC721Received",
      "outputs": [
        {
          "internalType": "bytes4",
          "name": "",
          "type": "bytes4"
        }
      ],
      "stateMutability": "nonpayable",
      "type": "function"
    },
    {
      "inputs": [],
      "name": "owner",
      "outputs": [
        {
          "internalType": "address",
          "name": "",
          "type": "address"
        }
      ],
      "stateMutability": "view",
      "type": "function"
    },
    {
      "inputs": [
        {
          "internalType": "address",
          "name": "_crc721",
          "type": "address"
        },
        {
          "internalType": "string",
          "name": "_name",
          "type": "string"
        },
        {
          "internalType": "string",
          "name": "_symbol",
          "type": "string"
        }
      ],
      "name": "registerCRC721",
      "outputs": [],
      "stateMutability": "nonpayable",
      "type": "function"
    },
    {
      "inputs": [],
      "name": "renounceOwnership",
      "outputs": [],
      "stateMutability": "nonpayable",
      "type": "function"
    },
    {
      "inputs": [],
      "name": "setCfxSide",
      "outputs": [],
      "stateMutability": "nonpayable",
      "type": "function"
    },
    {
      "inputs": [
        {
          "internalType": "address",
          "name": "",
          "type": "address"
        }
      ],
      "name": "sourceTokens",
      "outputs": [
        {
          "internalType": "address",
          "name": "",
          "type": "address"
        }
      ],
      "stateMutability": "view",
      "type": "function"
    },
    {
      "inputs": [
        {
          "internalType": "address",
          "name": "newOwner",
          "type": "address"
        }
      ],
      "name": "transferOwnership",
      "outputs": [],
      "stateMutability": "nonpayable",
      "type": "function"
    },
    {
      "inputs": [
        {
          "internalType": "address",
          "name": "_token",
          "type": "address"
        },
        {
          "internalType": "address",
          "name": "_evmAccount",
          "type": "address"
        },
        {
          "internalType": "uint256[]",
          "name": "_tokenIds",
          "type": "uint256[]"
        }
      ],
      "name": "withdrawFromCfx",
      "outputs": [],
      "stateMutability": "nonpayable",
      "type": "function"
    }
  ],
  "bytecode": "0x60806040523480156200001157600080fd5b5062000032620000266200004060201b60201c565b6200004860201b60201c565b60016005819055506200010c565b600033905090565b60008060009054906101000a900473ffffffffffffffffffffffffffffffffffffffff169050816000806101000a81548173ffffffffffffffffffffffffffffffffffffffff021916908373ffffffffffffffffffffffffffffffffffffffff1602179055508173ffffffffffffffffffffffffffffffffffffffff168173ffffffffffffffffffffffffffffffffffffffff167f8be0079c531659141344cd1fd0a4f28419497f9722a3daafe3b4186f6b6457e060405160405180910390a35050565b615849806200011c6000396000f3fe60806040523480156200001157600080fd5b5060043610620001d25760003560e01c8063715018a61162000111578063c48f116111620000a5578063d912cfc9116200007b578063d912cfc91462000561578063e6ede14d1462000597578063f2fde38b14620005cd578063fb0b475b14620005ed57620001d2565b8063c48f116114620004ea578063c4d66de8146200050a578063d3c9cc26146200052a57620001d2565b80638da5cb5b11620000e75780638da5cb5b146200045257806390ff1ae61462000474578063a547ee541462000494578063bbce3ca114620004ca57620001d2565b8063715018a614620003da578063849cd5cf14620003e65780638da16919146200041c57620001d2565b80633aa26309116200018957806356017e96116200015f57806356017e96146200035457806359659e90146200038c5780636a1c2e4914620003ae5780636fcfa4ce14620003ce57620001d2565b80633aa2630914620002dc57806344d3021914620003125780634b317143146200033257620001d2565b80630a1b94eb14620001d757806313ff7e9f14620001f7578063150b7a02146200022e578063158ef93e14620002645780632d97ff79146200028657806338e3eadf14620002a6575b600080fd5b620001f56004803603810190620001ef919062003833565b6200060d565b005b6200021560048036038101906200020f9190620034cb565b62000acf565b6040516200022592919062003eee565b60405180910390f35b6200024c600480360381019062000246919062003721565b62000be9565b6040516200025b919062003ed1565b60405180910390f35b6200026e62000bfe565b6040516200027d919062003eb4565b60405180910390f35b620002a460048036038101906200029e9190620036b2565b62000c11565b005b620002c46004803603810190620002be9190620038e7565b620010d4565b604051620002d3919062003da3565b60405180910390f35b620002fa6004803603810190620002f49190620035d2565b62001114565b6040516200030991906200410c565b60405180910390f35b6200033060048036038101906200032a9190620036b2565b62001160565b005b6200033c62001329565b6040516200034b919062003da3565b60405180910390f35b6200037260048036038101906200036c9190620034cb565b6200134f565b604051620003839392919062003f29565b60405180910390f35b62000396620014a6565b604051620003a5919062003da3565b60405180910390f35b620003cc6004803603810190620003c691906200354d565b620014cc565b005b620003d8620019ed565b005b620003e462001ac4565b005b620004046004803603810190620003fe9190620034cb565b62001adc565b60405162000413919062003da3565b60405180910390f35b6200043a6004803603810190620004349190620035d2565b62001b0f565b6040516200044991906200410c565b60405180910390f35b6200045c62001b5b565b6040516200046b919062003da3565b60405180910390f35b6200049260048036038101906200048c91906200354d565b62001b84565b005b620004b26004803603810190620004ac9190620034f7565b62001f06565b604051620004c1919062003e90565b60405180910390f35b620004e86004803603810190620004e29190620034cb565b62002021565b005b620005086004803603810190620005029190620037ab565b6200226a565b005b620005286004803603810190620005229190620034cb565b620024bd565b005b620005486004803603810190620005429190620038e7565b6200257a565b6040516200055892919062003e5c565b60405180910390f35b6200057f6004803603810190620005799190620034f7565b62002752565b6040516200058e919062003e90565b60405180910390f35b620005b56004803603810190620005af9190620034cb565b6200286d565b604051620005c4919062003da3565b60405180910390f35b620005eb6004803603810190620005e59190620034cb565b620028a0565b005b6200060b60048036038101906200060591906200363e565b6200292b565b005b6002600554141562000656576040517f08c379a00000000000000000000000000000000000000000000000000000000081526004016200064d90620040ea565b60405180910390fd5b6002600581905550600073ffffffffffffffffffffffffffffffffffffffff16600260008573ffffffffffffffffffffffffffffffffffffffff1673ffffffffffffffffffffffffffffffffffffffff16815260200190815260200160002060009054906101000a900473ffffffffffffffffffffffffffffffffffffffff1673ffffffffffffffffffffffffffffffffffffffff16146200072f576040517f08c379a00000000000000000000000000000000000000000000000000000000081526004016200072690620040c8565b60405180910390fd5b60006200073e84338562001f06565b9050620007bd81600067ffffffffffffffff81111562000787577f4e487b7100000000000000000000000000000000000000000000000000000000600052604160045260246000fd5b604051908082528060200260200182016040528015620007b65781602001602082028036833780820191505090505b5062002c25565b6200089b5760005b815181101562000899578473ffffffffffffffffffffffffffffffffffffffff166342842e0e303385858151811062000827577f4e487b7100000000000000000000000000000000000000000000000000000000600052603260045260246000fd5b60200260200101516040518463ffffffff1660e01b81526004016200084f9392919062003dc0565b600060405180830381600087803b1580156200086a57600080fd5b505af11580156200087f573d6000803e3d6000fd5b505050508080620008909062004434565b915050620007c5565b505b60005b825181101562000972578473ffffffffffffffffffffffffffffffffffffffff166342842e0e333086858151811062000900577f4e487b7100000000000000000000000000000000000000000000000000000000600052603260045260246000fd5b60200260200101516040518463ffffffff1660e01b8152600401620009289392919062003dc0565b600060405180830381600087803b1580156200094357600080fd5b505af115801562000958573d6000803e3d6000fd5b505050508080620009699062004434565b9150506200089e565b5081600960008673ffffffffffffffffffffffffffffffffffffffff1673ffffffffffffffffffffffffffffffffffffffff16815260200190815260200160002060003373ffffffffffffffffffffffffffffffffffffffff1673ffffffffffffffffffffffffffffffffffffffff16815260200190815260200160002060008573ffffffffffffffffffffffffffffffffffffffff1673ffffffffffffffffffffffffffffffffffffffff168152602001908152602001600020908051906020019062000a4292919062003133565b508273ffffffffffffffffffffffffffffffffffffffff163373ffffffffffffffffffffffffffffffffffffffff168573ffffffffffffffffffffffffffffffffffffffff167f29734dbbcec9f26cc88e7c8750fd8372837a9a2245f32f72b596f204b71ce3f88560405162000ab9919062003e90565b60405180910390a4506001600581905550505050565b6060808273ffffffffffffffffffffffffffffffffffffffff166306fdde036040518163ffffffff1660e01b815260040160006040518083038186803b15801562000b1957600080fd5b505afa15801562000b2e573d6000803e3d6000fd5b505050506040513d6000823e3d601f19601f8201168201806040525081019062000b599190620038a2565b8373ffffffffffffffffffffffffffffffffffffffff166395d89b416040518163ffffffff1660e01b815260040160006040518083038186803b15801562000ba057600080fd5b505afa15801562000bb5573d6000803e3d6000fd5b505050506040513d6000823e3d601f19601f8201168201806040525081019062000be09190620038a2565b91509150915091565b600063150b7a0260e01b905095945050505050565b600a60009054906101000a900460ff1681565b6002600554141562000c5a576040517f08c379a000000000000000000000000000000000000000000000000000000000815260040162000c5190620040ea565b60405180910390fd5b6002600581905550600073ffffffffffffffffffffffffffffffffffffffff16600260008573ffffffffffffffffffffffffffffffffffffffff1673ffffffffffffffffffffffffffffffffffffffff16815260200190815260200160002060009054906101000a900473ffffffffffffffffffffffffffffffffffffffff1673ffffffffffffffffffffffffffffffffffffffff16141562000d34576040517f08c379a000000000000000000000000000000000000000000000000000000000815260040162000d2b9062003fb8565b60405180910390fd5b600062000d4384338562002752565b905062000dc281600067ffffffffffffffff81111562000d8c577f4e487b7100000000000000000000000000000000000000000000000000000000600052604160045260246000fd5b60405190808252806020026020018201604052801562000dbb5781602001602082028036833780820191505090505b5062002c25565b62000ea05760005b815181101562000e9e578473ffffffffffffffffffffffffffffffffffffffff166342842e0e303385858151811062000e2c577f4e487b7100000000000000000000000000000000000000000000000000000000600052603260045260246000fd5b60200260200101516040518463ffffffff1660e01b815260040162000e549392919062003dc0565b600060405180830381600087803b15801562000e6f57600080fd5b505af115801562000e84573d6000803e3d6000fd5b50505050808062000e959062004434565b91505062000dca565b505b60005b825181101562000f77578473ffffffffffffffffffffffffffffffffffffffff166342842e0e333086858151811062000f05577f4e487b7100000000000000000000000000000000000000000000000000000000600052603260045260246000fd5b60200260200101516040518463ffffffff1660e01b815260040162000f2d9392919062003dc0565b600060405180830381600087803b15801562000f4857600080fd5b505af115801562000f5d573d6000803e3d6000fd5b50505050808062000f6e9062004434565b91505062000ea3565b5081600860008673ffffffffffffffffffffffffffffffffffffffff1673ffffffffffffffffffffffffffffffffffffffff16815260200190815260200160002060003373ffffffffffffffffffffffffffffffffffffffff1673ffffffffffffffffffffffffffffffffffffffff16815260200190815260200160002060008573ffffffffffffffffffffffffffffffffffffffff1673ffffffffffffffffffffffffffffffffffffffff16815260200190815260200160002090805190602001906200104792919062003133565b508273ffffffffffffffffffffffffffffffffffffffff163373ffffffffffffffffffffffffffffffffffffffff168573ffffffffffffffffffffffffffffffffffffffff167f165f5dcbe860c271bd2aa3aeb7cdefb63131ce20d5361b16fb837486f54f142285604051620010be919062003e90565b60405180910390a4506001600581905550505050565b60038181548110620010e557600080fd5b906000526020600020016000915054906101000a900473ffffffffffffffffffffffffffffffffffffffff1681565b600860205283600052604060002060205282600052604060002060205281600052604060002081815481106200114957600080fd5b906000526020600020016000935093505050505481565b60026005541415620011a9576040517f08c379a0000000000000000000000000000000000000000000000000000000008152600401620011a090620040ea565b60405180910390fd5b6002600581905550600660009054906101000a900473ffffffffffffffffffffffffffffffffffffffff1673ffffffffffffffffffffffffffffffffffffffff163373ffffffffffffffffffffffffffffffffffffffff161462001244576040517f08c379a00000000000000000000000000000000000000000000000000000000081526004016200123b9062004040565b60405180910390fd5b60005b81518110156200131b578373ffffffffffffffffffffffffffffffffffffffff166342842e0e3085858581518110620012a9577f4e487b7100000000000000000000000000000000000000000000000000000000600052603260045260246000fd5b60200260200101516040518463ffffffff1660e01b8152600401620012d19392919062003dc0565b600060405180830381600087803b158015620012ec57600080fd5b505af115801562001301573d6000803e3d6000fd5b505050508080620013129062004434565b91505062001247565b506001600581905550505050565b600660009054906101000a900473ffffffffffffffffffffffffffffffffffffffff1681565b60076020528060005260406000206000915090508060000180546200137490620043c8565b80601f0160208091040260200160405190810160405280929190818152602001828054620013a290620043c8565b8015620013f35780601f10620013c757610100808354040283529160200191620013f3565b820191906000526020600020905b815481529060010190602001808311620013d557829003601f168201915b5050505050908060010180546200140a90620043c8565b80601f01602080910402602001604051908101604052809291908181526020018280546200143890620043c8565b8015620014895780601f106200145d5761010080835404028352916020019162001489565b820191906000526020600020905b8154815290600101906020018083116200146b57829003601f168201915b5050505050908060020160009054906101000a900460ff16905083565b600460009054906101000a900473ffffffffffffffffffffffffffffffffffffffff1681565b6002600554141562001515576040517f08c379a00000000000000000000000000000000000000000000000000000000081526004016200150c90620040ea565b60405180910390fd5b6002600581905550600660009054906101000a900473ffffffffffffffffffffffffffffffffffffffff1673ffffffffffffffffffffffffffffffffffffffff163373ffffffffffffffffffffffffffffffffffffffff1614620015b0576040517f08c379a0000000000000000000000000000000000000000000000000000000008152600401620015a79062004040565b60405180910390fd5b600073ffffffffffffffffffffffffffffffffffffffff16600160008673ffffffffffffffffffffffffffffffffffffffff1673ffffffffffffffffffffffffffffffffffffffff16815260200190815260200160002060009054906101000a900473ffffffffffffffffffffffffffffffffffffffff1673ffffffffffffffffffffffffffffffffffffffff16141562001682576040517f08c379a0000000000000000000000000000000000000000000000000000000008152600401620016799062004084565b60405180910390fd5b6000600160008673ffffffffffffffffffffffffffffffffffffffff1673ffffffffffffffffffffffffffffffffffffffff16815260200190815260200160002060009054906101000a900473ffffffffffffffffffffffffffffffffffffffff1690506000620016f582868662002752565b905062001703818462002c25565b62001745576040517f08c379a00000000000000000000000000000000000000000000000000000000081526004016200173c9062003fda565b60405180910390fd5b60005b815181101562001818578273ffffffffffffffffffffffffffffffffffffffff166342966c68838381518110620017a8577f4e487b7100000000000000000000000000000000000000000000000000000000600052603260045260246000fd5b60200260200101516040518263ffffffff1660e01b8152600401620017ce91906200410c565b600060405180830381600087803b158015620017e957600080fd5b505af1158015620017fe573d6000803e3d6000fd5b5050505080806200180f9062004434565b91505062001748565b5060008067ffffffffffffffff8111156200185c577f4e487b7100000000000000000000000000000000000000000000000000000000600052604160045260246000fd5b6040519080825280602002602001820160405280156200188b5781602001602082028036833780820191505090505b50905080600860008573ffffffffffffffffffffffffffffffffffffffff1673ffffffffffffffffffffffffffffffffffffffff16815260200190815260200160002060008873ffffffffffffffffffffffffffffffffffffffff1673ffffffffffffffffffffffffffffffffffffffff16815260200190815260200160002060008773ffffffffffffffffffffffffffffffffffffffff1673ffffffffffffffffffffffffffffffffffffffff16815260200190815260200160002090805190602001906200195d92919062003133565b508473ffffffffffffffffffffffffffffffffffffffff168673ffffffffffffffffffffffffffffffffffffffff168473ffffffffffffffffffffffffffffffffffffffff167f165f5dcbe860c271bd2aa3aeb7cdefb63131ce20d5361b16fb837486f54f142284604051620019d4919062003e90565b60405180910390a4505050600160058190555050505050565b600073ffffffffffffffffffffffffffffffffffffffff16600660009054906101000a900473ffffffffffffffffffffffffffffffffffffffff1673ffffffffffffffffffffffffffffffffffffffff161462001a81576040517f08c379a000000000000000000000000000000000000000000000000000000000815260040162001a7890620040a6565b60405180910390fd5b33600660006101000a81548173ffffffffffffffffffffffffffffffffffffffff021916908373ffffffffffffffffffffffffffffffffffffffff160217905550565b62001ace62002c82565b62001ada600062002d07565b565b60026020528060005260406000206000915054906101000a900473ffffffffffffffffffffffffffffffffffffffff1681565b6009602052836000526040600020602052826000526040600020602052816000526040600020818154811062001b4457600080fd5b906000526020600020016000935093505050505481565b60008060009054906101000a900473ffffffffffffffffffffffffffffffffffffffff16905090565b6002600554141562001bcd576040517f08c379a000000000000000000000000000000000000000000000000000000000815260040162001bc490620040ea565b60405180910390fd5b6002600581905550600660009054906101000a900473ffffffffffffffffffffffffffffffffffffffff1673ffffffffffffffffffffffffffffffffffffffff163373ffffffffffffffffffffffffffffffffffffffff161462001c68576040517f08c379a000000000000000000000000000000000000000000000000000000000815260040162001c5f9062004040565b60405180910390fd5b600062001c7785858562001f06565b905062001c85828262002c25565b62001cc7576040517f08c379a000000000000000000000000000000000000000000000000000000000815260040162001cbe9062003fda565b60405180910390fd5b600067ffffffffffffffff81111562001d09577f4e487b7100000000000000000000000000000000000000000000000000000000600052604160045260246000fd5b60405190808252806020026020018201604052801562001d385781602001602082028036833780820191505090505b50600960008773ffffffffffffffffffffffffffffffffffffffff1673ffffffffffffffffffffffffffffffffffffffff16815260200190815260200160002060008673ffffffffffffffffffffffffffffffffffffffff1673ffffffffffffffffffffffffffffffffffffffff16815260200190815260200160002060008573ffffffffffffffffffffffffffffffffffffffff1673ffffffffffffffffffffffffffffffffffffffff168152602001908152602001600020908051906020019062001e0792919062003133565b508273ffffffffffffffffffffffffffffffffffffffff168473ffffffffffffffffffffffffffffffffffffffff168673ffffffffffffffffffffffffffffffffffffffff167f29734dbbcec9f26cc88e7c8750fd8372837a9a2245f32f72b596f204b71ce3f8600067ffffffffffffffff81111562001eb0577f4e487b7100000000000000000000000000000000000000000000000000000000600052604160045260246000fd5b60405190808252806020026020018201604052801562001edf5781602001602082028036833780820191505090505b5060405162001eef919062003e90565b60405180910390a450600160058190555050505050565b60606000600960008673ffffffffffffffffffffffffffffffffffffffff1673ffffffffffffffffffffffffffffffffffffffff16815260200190815260200160002060008573ffffffffffffffffffffffffffffffffffffffff1673ffffffffffffffffffffffffffffffffffffffff16815260200190815260200160002060008473ffffffffffffffffffffffffffffffffffffffff1673ffffffffffffffffffffffffffffffffffffffff1681526020019081526020016000208054806020026020016040519081016040528092919081815260200182805480156200200f57602002820191906000526020600020905b81548152602001906001019080831162001ffa575b50505050509050809150509392505050565b600760008273ffffffffffffffffffffffffffffffffffffffff1673ffffffffffffffffffffffffffffffffffffffff16815260200190815260200160002060020160009054906101000a900460ff16620020b3576040517f08c379a0000000000000000000000000000000000000000000000000000000008152600401620020aa906200401e565b60405180910390fd5b6000600760008373ffffffffffffffffffffffffffffffffffffffff1673ffffffffffffffffffffffffffffffffffffffff1681526020019081526020016000206040518060600160405290816000820180546200211190620043c8565b80601f01602080910402602001604051908101604052809291908181526020018280546200213f90620043c8565b8015620021905780601f10620021645761010080835404028352916020019162002190565b820191906000526020600020905b8154815290600101906020018083116200217257829003601f168201915b50505050508152602001600182018054620021ab90620043c8565b80601f0160208091040260200160405190810160405280929190818152602001828054620021d990620043c8565b80156200222a5780601f10620021fe576101008083540402835291602001916200222a565b820191906000526020600020905b8154815290600101906020018083116200220c57829003601f168201915b505050505081526020016002820160009054906101000a900460ff161515151581525050905062002265828260000151836020015162002dcb565b505050565b60026005541415620022b3576040517f08c379a0000000000000000000000000000000000000000000000000000000008152600401620022aa90620040ea565b60405180910390fd5b6002600581905550600660009054906101000a900473ffffffffffffffffffffffffffffffffffffffff1673ffffffffffffffffffffffffffffffffffffffff163373ffffffffffffffffffffffffffffffffffffffff16146200234e576040517f08c379a0000000000000000000000000000000000000000000000000000000008152600401620023459062004040565b60405180910390fd5b600760008473ffffffffffffffffffffffffffffffffffffffff1673ffffffffffffffffffffffffffffffffffffffff16815260200190815260200160002060020160009054906101000a900460ff1615620023e1576040517f08c379a0000000000000000000000000000000000000000000000000000000008152600401620023d89062003f96565b60405180910390fd5b620023eb62003185565b828160000181905250818160200181905250600181604001901515908115158152505080600760008673ffffffffffffffffffffffffffffffffffffffff1673ffffffffffffffffffffffffffffffffffffffff16815260200190815260200160002060008201518160000190805190602001906200246c929190620031a8565b5060208201518160010190805190602001906200248b929190620031a8565b5060408201518160020160006101000a81548160ff021916908315150217905550905050506001600581905550505050565b600a60009054906101000a900460ff161562002510576040517f08c379a0000000000000000000000000000000000000000000000000000000008152600401620025079062004062565b60405180910390fd5b6001600a60006101000a81548160ff02191690831515021790555080600460006101000a81548173ffffffffffffffffffffffffffffffffffffffff021916908373ffffffffffffffffffffffffffffffffffffffff160217905550620025773362002d07565b50565b60606000600380549050905060008160648562002598919062004261565b10620025a55781620025b5565b606484620025b4919062004261565b5b9050838111156200274c578381620025ce9190620042be565b67ffffffffffffffff8111156200260e577f4e487b7100000000000000000000000000000000000000000000000000000000600052604160045260246000fd5b6040519080825280602002602001820160405280156200263d5781602001602082028036833780820191505090505b50925060008490505b818110156200274a57600381815481106200268a577f4e487b7100000000000000000000000000000000000000000000000000000000600052603260045260246000fd5b9060005260206000200160009054906101000a900473ffffffffffffffffffffffffffffffffffffffff16848683620026c49190620042be565b81518110620026fc577f4e487b7100000000000000000000000000000000000000000000000000000000600052603260045260246000fd5b602002602001019073ffffffffffffffffffffffffffffffffffffffff16908173ffffffffffffffffffffffffffffffffffffffff168152505080620027429062004434565b905062002646565b505b50915091565b60606000600860008673ffffffffffffffffffffffffffffffffffffffff1673ffffffffffffffffffffffffffffffffffffffff16815260200190815260200160002060008573ffffffffffffffffffffffffffffffffffffffff1673ffffffffffffffffffffffffffffffffffffffff16815260200190815260200160002060008473ffffffffffffffffffffffffffffffffffffffff1673ffffffffffffffffffffffffffffffffffffffff1681526020019081526020016000208054806020026020016040519081016040528092919081815260200182805480156200285b57602002820191906000526020600020905b81548152602001906001019080831162002846575b50505050509050809150509392505050565b60016020528060005260406000206000915054906101000a900473ffffffffffffffffffffffffffffffffffffffff1681565b620028aa62002c82565b600073ffffffffffffffffffffffffffffffffffffffff168173ffffffffffffffffffffffffffffffffffffffff1614156200291d576040517f08c379a0000000000000000000000000000000000000000000000000000000008152600401620029149062003f74565b60405180910390fd5b620029288162002d07565b50565b6002600554141562002974576040517f08c379a00000000000000000000000000000000000000000000000000000000081526004016200296b90620040ea565b60405180910390fd5b6002600581905550600660009054906101000a900473ffffffffffffffffffffffffffffffffffffffff1673ffffffffffffffffffffffffffffffffffffffff163373ffffffffffffffffffffffffffffffffffffffff161462002a0f576040517f08c379a000000000000000000000000000000000000000000000000000000000815260040162002a069062004040565b60405180910390fd5b600073ffffffffffffffffffffffffffffffffffffffff16600160008673ffffffffffffffffffffffffffffffffffffffff1673ffffffffffffffffffffffffffffffffffffffff16815260200190815260200160002060009054906101000a900473ffffffffffffffffffffffffffffffffffffffff1673ffffffffffffffffffffffffffffffffffffffff16141562002ae1576040517f08c379a000000000000000000000000000000000000000000000000000000000815260040162002ad89062004084565b60405180910390fd5b60005b8282905081101562002c1657600160008673ffffffffffffffffffffffffffffffffffffffff1673ffffffffffffffffffffffffffffffffffffffff16815260200190815260200160002060009054906101000a900473ffffffffffffffffffffffffffffffffffffffff1673ffffffffffffffffffffffffffffffffffffffff1663a14481948585858581811062002ba6577f4e487b7100000000000000000000000000000000000000000000000000000000600052603260045260246000fd5b905060200201356040518363ffffffff1660e01b815260040162002bcc92919062003e2f565b600060405180830381600087803b15801562002be757600080fd5b505af115801562002bfc573d6000803e3d6000fd5b50505050808062002c0d9062004434565b91505062002ae4565b50600160058190555050505050565b60008160405160200162002c3a919062003d8a565b604051602081830303815290604052805190602001208360405160200162002c63919062003d8a565b6040516020818303038152906040528051906020012014905092915050565b62002c8c6200312b565b73ffffffffffffffffffffffffffffffffffffffff1662002cac62001b5b565b73ffffffffffffffffffffffffffffffffffffffff161462002d05576040517f08c379a000000000000000000000000000000000000000000000000000000000815260040162002cfc9062003ffc565b60405180910390fd5b565b60008060009054906101000a900473ffffffffffffffffffffffffffffffffffffffff169050816000806101000a81548173ffffffffffffffffffffffffffffffffffffffff021916908373ffffffffffffffffffffffffffffffffffffffff1602179055508173ffffffffffffffffffffffffffffffffffffffff168173ffffffffffffffffffffffffffffffffffffffff167f8be0079c531659141344cd1fd0a4f28419497f9722a3daafe3b4186f6b6457e060405160405180910390a35050565b60008073ffffffffffffffffffffffffffffffffffffffff16600160008673ffffffffffffffffffffffffffffffffffffffff1673ffffffffffffffffffffffffffffffffffffffff16815260200190815260200160002060009054906101000a900473ffffffffffffffffffffffffffffffffffffffff1673ffffffffffffffffffffffffffffffffffffffff161415620030c1578360405160200162002e74919062003d6d565b60405160208183030381529060405280519060200120600460009054906101000a900473ffffffffffffffffffffffffffffffffffffffff1660405162002ebb9062003239565b62002ec7919062003dfd565b8190604051809103906000f590508015801562002ee8573d6000803e3d6000fd5b5090508073ffffffffffffffffffffffffffffffffffffffff16634cd88b7684846040518363ffffffff1660e01b815260040162002f2892919062003eee565b600060405180830381600087803b15801562002f4357600080fd5b505af115801562002f58573d6000803e3d6000fd5b5050505080600160008673ffffffffffffffffffffffffffffffffffffffff1673ffffffffffffffffffffffffffffffffffffffff16815260200190815260200160002060006101000a81548173ffffffffffffffffffffffffffffffffffffffff021916908373ffffffffffffffffffffffffffffffffffffffff16021790555083600260008373ffffffffffffffffffffffffffffffffffffffff1673ffffffffffffffffffffffffffffffffffffffff16815260200190815260200160002060006101000a81548173ffffffffffffffffffffffffffffffffffffffff021916908373ffffffffffffffffffffffffffffffffffffffff1602179055506003849080600181540180825580915050600190039060005260206000200160009091909190916101000a81548173ffffffffffffffffffffffffffffffffffffffff021916908373ffffffffffffffffffffffffffffffffffffffff16021790555062003124565b600160008573ffffffffffffffffffffffffffffffffffffffff1673ffffffffffffffffffffffffffffffffffffffff16815260200190815260200160002060009054906101000a900473ffffffffffffffffffffffffffffffffffffffff1690505b9392505050565b600033905090565b82805482825590600052602060002090810192821562003172579160200282015b828111156200317157825182559160200191906001019062003154565b5b50905062003181919062003247565b5090565b604051806060016040528060608152602001606081526020016000151581525090565b828054620031b690620043c8565b90600052602060002090601f016020900481019282620031da576000855562003226565b82601f10620031f557805160ff191683800117855562003226565b8280016001018555821562003226579182015b828111156200322557825182559160200191906001019062003208565b5b50905062003235919062003247565b5090565b61103580620047df83390190565b5b808211156200326257600081600090555060010162003248565b5090565b60006200327d620032778462004152565b62004129565b905080838252602082019050828560208602820111156200329d57600080fd5b60005b85811015620032d15781620032b68882620034b4565b845260208401935060208301925050600181019050620032a0565b5050509392505050565b6000620032f2620032ec8462004181565b62004129565b9050828152602081018484840111156200330b57600080fd5b6200331884828562004383565b509392505050565b600062003337620033318462004181565b62004129565b9050828152602081018484840111156200335057600080fd5b6200335d84828562004392565b509392505050565b600081359050620033768162004790565b92915050565b60008083601f8401126200338f57600080fd5b8235905067ffffffffffffffff811115620033a957600080fd5b602083019150836020820283011115620033c257600080fd5b9250929050565b600082601f830112620033db57600080fd5b8135620033ed84826020860162003266565b91505092915050565b60008083601f8401126200340957600080fd5b8235905067ffffffffffffffff8111156200342357600080fd5b6020830191508360018202830111156200343c57600080fd5b9250929050565b6000813590506200345481620047aa565b92915050565b600082601f8301126200346c57600080fd5b81356200347e848260208601620032db565b91505092915050565b600082601f8301126200349957600080fd5b8151620034ab84826020860162003320565b91505092915050565b600081359050620034c581620047c4565b92915050565b600060208284031215620034de57600080fd5b6000620034ee8482850162003365565b91505092915050565b6000806000606084860312156200350d57600080fd5b60006200351d8682870162003365565b9350506020620035308682870162003365565b9250506040620035438682870162003365565b9150509250925092565b600080600080608085870312156200356457600080fd5b6000620035748782880162003365565b9450506020620035878782880162003365565b93505060406200359a8782880162003365565b925050606085013567ffffffffffffffff811115620035b857600080fd5b620035c687828801620033c9565b91505092959194509250565b60008060008060808587031215620035e957600080fd5b6000620035f98782880162003365565b94505060206200360c8782880162003365565b93505060406200361f8782880162003365565b92505060606200363287828801620034b4565b91505092959194509250565b600080600080606085870312156200365557600080fd5b6000620036658782880162003365565b9450506020620036788782880162003365565b935050604085013567ffffffffffffffff8111156200369657600080fd5b620036a4878288016200337c565b925092505092959194509250565b600080600060608486031215620036c857600080fd5b6000620036d88682870162003365565b9350506020620036eb8682870162003365565b925050604084013567ffffffffffffffff8111156200370957600080fd5b6200371786828701620033c9565b9150509250925092565b6000806000806000608086880312156200373a57600080fd5b60006200374a8882890162003365565b95505060206200375d8882890162003365565b94505060406200377088828901620034b4565b935050606086013567ffffffffffffffff8111156200378e57600080fd5b6200379c88828901620033f6565b92509250509295509295909350565b600080600060608486031215620037c157600080fd5b6000620037d18682870162003365565b935050602084013567ffffffffffffffff811115620037ef57600080fd5b620037fd868287016200345a565b925050604084013567ffffffffffffffff8111156200381b57600080fd5b62003829868287016200345a565b9150509250925092565b6000806000606084860312156200384957600080fd5b6000620038598682870162003443565b93505060206200386c8682870162003365565b925050604084013567ffffffffffffffff8111156200388a57600080fd5b6200389886828701620033c9565b9150509250925092565b600060208284031215620038b557600080fd5b600082015167ffffffffffffffff811115620038d057600080fd5b620038de8482850162003487565b91505092915050565b600060208284031215620038fa57600080fd5b60006200390a84828501620034b4565b91505092915050565b600062003921838362003961565b60208301905092915050565b60006200393b838362003d3a565b60208301905092915050565b600062003955838362003d5c565b60208301905092915050565b6200396c81620042f9565b82525050565b6200397d81620042f9565b82525050565b620039986200399282620042f9565b62004482565b82525050565b6000620039ab82620041d7565b620039b7818562004212565b9350620039c483620041b7565b8060005b83811015620039fb578151620039df888262003913565b9750620039ec83620041f8565b925050600181019050620039c8565b5085935050505092915050565b600062003a1582620041e2565b62003a21818562004223565b935062003a2e83620041c7565b8060005b8381101562003a6557815162003a4988826200392d565b975062003a568362004205565b92505060018101905062003a32565b5085935050505092915050565b600062003a7f82620041e2565b62003a8b818562004234565b935062003a9883620041c7565b8060005b8381101562003acf57815162003ab3888262003947565b975062003ac08362004205565b92505060018101905062003a9c565b5085935050505092915050565b62003ae7816200430d565b82525050565b62003af88162004319565b82525050565b600062003b0b82620041ed565b62003b17818562004250565b935062003b2981856020860162004392565b62003b348162004537565b840191505092915050565b600062003b4e60268362004250565b915062003b5b8262004555565b604082019050919050565b600062003b7560138362004250565b915062003b8282620045a4565b602082019050919050565b600062003b9c60198362004250565b915062003ba982620045cd565b602082019050919050565b600062003bc360188362004250565b915062003bd082620045f6565b602082019050919050565b600062003bea60208362004250565b915062003bf7826200461f565b602082019050919050565b600062003c1160178362004250565b915062003c1e8262004648565b602082019050919050565b600062003c38601f8362004250565b915062003c458262004671565b602082019050919050565b600062003c5f60148362004250565b915062003c6c826200469a565b602082019050919050565b600062003c86601c8362004250565b915062003c9382620046c3565b602082019050919050565b600062003cad601d8362004250565b915062003cba82620046ec565b602082019050919050565b600062003cd46000836200423f565b915062003ce18262004715565b600082019050919050565b600062003cfb60288362004250565b915062003d088262004718565b604082019050919050565b600062003d22601f8362004250565b915062003d2f8262004767565b602082019050919050565b62003d458162004379565b82525050565b62003d568162004379565b82525050565b62003d678162004379565b82525050565b600062003d7b828462003983565b60148201915081905092915050565b600062003d98828462003a72565b915081905092915050565b600060208201905062003dba600083018462003972565b92915050565b600060608201905062003dd7600083018662003972565b62003de6602083018562003972565b62003df5604083018462003d4b565b949350505050565b600060408201905062003e14600083018462003972565b818103602083015262003e278162003cc5565b905092915050565b600060408201905062003e46600083018562003972565b62003e55602083018462003d4b565b9392505050565b6000604082019050818103600083015262003e7881856200399e565b905062003e89602083018462003d4b565b9392505050565b6000602082019050818103600083015262003eac818462003a08565b905092915050565b600060208201905062003ecb600083018462003adc565b92915050565b600060208201905062003ee8600083018462003aed565b92915050565b6000604082019050818103600083015262003f0a818562003afe565b9050818103602083015262003f20818462003afe565b90509392505050565b6000606082019050818103600083015262003f45818662003afe565b9050818103602083015262003f5b818562003afe565b905062003f6c604083018462003adc565b949350505050565b6000602082019050818103600083015262003f8f8162003b3f565b9050919050565b6000602082019050818103600083015262003fb18162003b66565b9050919050565b6000602082019050818103600083015262003fd38162003b8d565b9050919050565b6000602082019050818103600083015262003ff58162003bb4565b9050919050565b60006020820190508181036000830152620040178162003bdb565b9050919050565b60006020820190508181036000830152620040398162003c02565b9050919050565b600060208201905081810360008301526200405b8162003c29565b9050919050565b600060208201905081810360008301526200407d8162003c50565b9050919050565b600060208201905081810360008301526200409f8162003c77565b9050919050565b60006020820190508181036000830152620040c18162003c9e565b9050919050565b60006020820190508181036000830152620040e38162003cec565b9050919050565b60006020820190508181036000830152620041058162003d13565b9050919050565b600060208201905062004123600083018462003d4b565b92915050565b60006200413562004148565b9050620041438282620043fe565b919050565b6000604051905090565b600067ffffffffffffffff82111562004170576200416f62004508565b5b602082029050602081019050919050565b600067ffffffffffffffff8211156200419f576200419e62004508565b5b620041aa8262004537565b9050602081019050919050565b6000819050602082019050919050565b6000819050602082019050919050565b600081519050919050565b600081519050919050565b600081519050919050565b6000602082019050919050565b6000602082019050919050565b600082825260208201905092915050565b600082825260208201905092915050565b600081905092915050565b600082825260208201905092915050565b600082825260208201905092915050565b60006200426e8262004379565b91506200427b8362004379565b9250827fffffffffffffffffffffffffffffffffffffffffffffffffffffffffffffffff03821115620042b357620042b2620044aa565b5b828201905092915050565b6000620042cb8262004379565b9150620042d88362004379565b925082821015620042ee57620042ed620044aa565b5b828203905092915050565b6000620043068262004359565b9050919050565b60008115159050919050565b60007fffffffff0000000000000000000000000000000000000000000000000000000082169050919050565b60006200435282620042f9565b9050919050565b600073ffffffffffffffffffffffffffffffffffffffff82169050919050565b6000819050919050565b82818337600083830152505050565b60005b83811015620043b257808201518184015260208101905062004395565b83811115620043c2576000848401525b50505050565b60006002820490506001821680620043e157607f821691505b60208210811415620043f857620043f7620044d9565b5b50919050565b620044098262004537565b810181811067ffffffffffffffff821117156200442b576200442a62004508565b5b80604052505050565b6000620044418262004379565b91507fffffffffffffffffffffffffffffffffffffffffffffffffffffffffffffffff821415620044775762004476620044aa565b5b600182019050919050565b60006200448f8262004496565b9050919050565b6000620044a38262004548565b9050919050565b7f4e487b7100000000000000000000000000000000000000000000000000000000600052601160045260246000fd5b7f4e487b7100000000000000000000000000000000000000000000000000000000600052602260045260246000fd5b7f4e487b7100000000000000000000000000000000000000000000000000000000600052604160045260246000fd5b6000601f19601f8301169050919050565b60008160601b9050919050565b7f4f776e61626c653a206e6577206f776e657220697320746865207a65726f206160008201527f6464726573730000000000000000000000000000000000000000000000000000602082015250565b7f45766d536964653a207265676973746572656400000000000000000000000000600082015250565b7f45766d536964653a206e6f74206d617070656420746f6b656e00000000000000600082015250565b7f45766d536964653a206e6f7420796f757220746f6b656e730000000000000000600082015250565b7f4f776e61626c653a2063616c6c6572206973206e6f7420746865206f776e6572600082015250565b7f45766d536964653a206e6f742072656769737465726564000000000000000000600082015250565b7f45766d536964653a2073656e646572206973206e6f7420636678207369646500600082015250565b7f45766d536964653a20696e697469616c697a6564000000000000000000000000600082015250565b7f45766d536964653a20746f6b656e206973206e6f74206d617070656400000000600082015250565b7f45766d536964653a2063667820736964652073657420616c7265616479000000600082015250565b50565b7f45766d536964653a20746f6b656e206973206d61707065642066726f6d20636f60008201527f7265207370616365000000000000000000000000000000000000000000000000602082015250565b7f5265656e7472616e637947756172643a207265656e7472616e742063616c6c00600082015250565b6200479b81620042f9565b8114620047a757600080fd5b50565b620047b58162004345565b8114620047c157600080fd5b50565b620047cf8162004379565b8114620047db57600080fd5b5056fe608060405260405162001035380380620010358339818101604052810190620000299190620005e1565b60017fa3f0ad74e5423aebfd80d3ef4346578335a9a72aeaee59ff6cb3582b35133d5160001c6200005b91906200085c565b60001b7fa3f0ad74e5423aebfd80d3ef4346578335a9a72aeaee59ff6cb3582b35133d5060001b14620000b7577f4e487b7100000000000000000000000000000000000000000000000000000000600052600160045260246000fd5b620000cb82826000620000d360201b60201c565b505062000ab7565b620000e483620001da60201b60201c565b8273ffffffffffffffffffffffffffffffffffffffff167f1cf3b03a6cf19fa2baba4df148e9dcabedea7f8a5c07840e207e5c089be95d3e60405160405180910390a2600082511180620001355750805b15620001d557620001d38373ffffffffffffffffffffffffffffffffffffffff16635c60da1b6040518163ffffffff1660e01b815260040160206040518083038186803b1580156200018657600080fd5b505afa1580156200019b573d6000803e3d6000fd5b505050506040513d601f19601f82011682018060405250810190620001c19190620005b5565b836200038960201b6200002f1760201c565b505b505050565b620001f081620003bf60201b6200005c1760201c565b62000232576040517f08c379a0000000000000000000000000000000000000000000000000000000008152600401620002299062000765565b60405180910390fd5b620002c98173ffffffffffffffffffffffffffffffffffffffff16635c60da1b6040518163ffffffff1660e01b815260040160206040518083038186803b1580156200027d57600080fd5b505afa15801562000292573d6000803e3d6000fd5b505050506040513d601f19601f82011682018060405250810190620002b89190620005b5565b620003bf60201b6200005c1760201c565b6200030b576040517f08c379a00000000000000000000000000000000000000000000000000000000081526004016200030290620007a9565b60405180910390fd5b80620003457fa3f0ad74e5423aebfd80d3ef4346578335a9a72aeaee59ff6cb3582b35133d5060001b620003d260201b6200006f1760201c565b60000160006101000a81548173ffffffffffffffffffffffffffffffffffffffff021916908373ffffffffffffffffffffffffffffffffffffffff16021790555050565b6060620003b783836040518060600160405280602781526020016200100e60279139620003dc60201b60201c565b905092915050565b600080823b905060008111915050919050565b6000819050919050565b6060620003ef84620003bf60201b60201c565b62000431576040517f08c379a0000000000000000000000000000000000000000000000000000000008152600401620004289062000787565b60405180910390fd5b6000808573ffffffffffffffffffffffffffffffffffffffff16856040516200045b919062000728565b600060405180830381855af49150503d806000811462000498576040519150601f19603f3d011682016040523d82523d6000602084013e6200049d565b606091505b5091509150620004b5828286620004c060201b60201c565b925050509392505050565b60608315620004d25782905062000525565b600083511115620004e65782518084602001fd5b816040517f08c379a00000000000000000000000000000000000000000000000000000000081526004016200051c919062000741565b60405180910390fd5b9392505050565b6000620005436200053d84620007f4565b620007cb565b9050828152602081018484840111156200055c57600080fd5b62000569848285620008d5565b509392505050565b600081519050620005828162000a9d565b92915050565b600082601f8301126200059a57600080fd5b8151620005ac8482602086016200052c565b91505092915050565b600060208284031215620005c857600080fd5b6000620005d88482850162000571565b91505092915050565b60008060408385031215620005f557600080fd5b6000620006058582860162000571565b925050602083015167ffffffffffffffff8111156200062357600080fd5b620006318582860162000588565b9150509250929050565b600062000648826200082a565b62000654818562000840565b935062000666818560208601620008d5565b80840191505092915050565b60006200067f8262000835565b6200068b81856200084b565b93506200069d818560208601620008d5565b620006a8816200099f565b840191505092915050565b6000620006c26025836200084b565b9150620006cf82620009b0565b604082019050919050565b6000620006e96026836200084b565b9150620006f682620009ff565b604082019050919050565b6000620007106030836200084b565b91506200071d8262000a4e565b604082019050919050565b60006200073682846200063b565b915081905092915050565b600060208201905081810360008301526200075d818462000672565b905092915050565b600060208201905081810360008301526200078081620006b3565b9050919050565b60006020820190508181036000830152620007a281620006da565b9050919050565b60006020820190508181036000830152620007c48162000701565b9050919050565b6000620007d7620007ea565b9050620007e582826200090b565b919050565b6000604051905090565b600067ffffffffffffffff82111562000812576200081162000970565b5b6200081d826200099f565b9050602081019050919050565b600081519050919050565b600081519050919050565b600081905092915050565b600082825260208201905092915050565b60006200086982620008cb565b91506200087683620008cb565b9250828210156200088c576200088b62000941565b5b828203905092915050565b6000620008a482620008ab565b9050919050565b600073ffffffffffffffffffffffffffffffffffffffff82169050919050565b6000819050919050565b60005b83811015620008f5578082015181840152602081019050620008d8565b8381111562000905576000848401525b50505050565b62000916826200099f565b810181811067ffffffffffffffff8211171562000938576200093762000970565b5b80604052505050565b7f4e487b7100000000000000000000000000000000000000000000000000000000600052601160045260246000fd5b7f4e487b7100000000000000000000000000000000000000000000000000000000600052604160045260246000fd5b6000601f19601f8301169050919050565b7f455243313936373a206e657720626561636f6e206973206e6f74206120636f6e60008201527f7472616374000000000000000000000000000000000000000000000000000000602082015250565b7f416464726573733a2064656c65676174652063616c6c20746f206e6f6e2d636f60008201527f6e74726163740000000000000000000000000000000000000000000000000000602082015250565b7f455243313936373a20626561636f6e20696d706c656d656e746174696f6e206960008201527f73206e6f74206120636f6e747261637400000000000000000000000000000000602082015250565b62000aa88162000897565b811462000ab457600080fd5b50565b6105478062000ac76000396000f3fe60806040523661000b57005b610013610015565b005b61001d610079565b61002d61002861007b565b610107565b565b606061005483836040518060600160405280602781526020016104eb6027913961012d565b905092915050565b600080823b905060008111915050919050565b6000819050919050565b565b60006100856101fa565b73ffffffffffffffffffffffffffffffffffffffff16635c60da1b6040518163ffffffff1660e01b815260040160206040518083038186803b1580156100ca57600080fd5b505afa1580156100de573d6000803e3d6000fd5b505050506040513d601f19601f8201168201806040525081019061010291906102cd565b905090565b3660008037600080366000845af43d6000803e8060008114610128573d6000f35b3d6000fd5b60606101388461005c565b610177576040517f08c379a000000000000000000000000000000000000000000000000000000000815260040161016e906103bc565b60405180910390fd5b6000808573ffffffffffffffffffffffffffffffffffffffff168560405161019f9190610383565b600060405180830381855af49150503d80600081146101da576040519150601f19603f3d011682016040523d82523d6000602084013e6101df565b606091505b50915091506101ef828286610251565b925050509392505050565b60006102287fa3f0ad74e5423aebfd80d3ef4346578335a9a72aeaee59ff6cb3582b35133d5060001b61006f565b60000160009054906101000a900473ffffffffffffffffffffffffffffffffffffffff16905090565b60608315610261578290506102b1565b6000835111156102745782518084602001fd5b816040517f08c379a00000000000000000000000000000000000000000000000000000000081526004016102a8919061039a565b60405180910390fd5b9392505050565b6000815190506102c7816104d3565b92915050565b6000602082840312156102df57600080fd5b60006102ed848285016102b8565b91505092915050565b6000610301826103dc565b61030b81856103f2565b935061031b818560208601610440565b80840191505092915050565b6000610332826103e7565b61033c81856103fd565b935061034c818560208601610440565b61035581610473565b840191505092915050565b600061036d6026836103fd565b915061037882610484565b604082019050919050565b600061038f82846102f6565b915081905092915050565b600060208201905081810360008301526103b48184610327565b905092915050565b600060208201905081810360008301526103d581610360565b9050919050565b600081519050919050565b600081519050919050565b600081905092915050565b600082825260208201905092915050565b600061041982610420565b9050919050565b600073ffffffffffffffffffffffffffffffffffffffff82169050919050565b60005b8381101561045e578082015181840152602081019050610443565b8381111561046d576000848401525b50505050565b6000601f19601f8301169050919050565b7f416464726573733a2064656c65676174652063616c6c20746f206e6f6e2d636f60008201527f6e74726163740000000000000000000000000000000000000000000000000000602082015250565b6104dc8161040e565b81146104e757600080fd5b5056fe416464726573733a206c6f772d6c6576656c2064656c65676174652063616c6c206661696c6564a2646970667358221220c52366338f6ac53f0623e0eb3cef0d60d638b03f8b7e8554cd8aab675fb558d864736f6c63430008020033416464726573733a206c6f772d6c6576656c2064656c65676174652063616c6c206661696c6564a264697066735822122068af3b03e0a9443915cbc702f747c35bb94f8a4185e0a5cbfb9830a1f2b8d64964736f6c63430008020033",
  "linkReferences": {},
  "deployedLinkReferences": {}
}