{
  "_format": "hh-sol-artifact-1",
  "contractName": "ConfluxSideERC721",
  "sourceName": "contracts/ConfluxSideERC721.sol",
  "abi": [
    {
      "anonymous": false,
      "inputs": [
        {
          "indexed": true,
          "internalType": "address",
          "name": "token",
          "type": "address"
        },
        {
          "indexed": true,
          "internalType": "address",
          "name": "cfxAccount",
          "type": "address"
        },
        {
          "indexed": true,
          "internalType": "address",
          "name": "evmAccount",
          "type": "address"
        },
        {
          "indexed": false,
          "internalType": "uint256[]",
          "name": "tokenIds",
          "type": "uint256[]"
        }
      ],
      "name": "CrossFromEvm",
      "type": "event"
    },
    {
      "anonymous": false,
      "inputs": [
        {
          "indexed": true,
          "internalType": "address",
          "name": "token",
          "type": "address"
        },
        {
          "indexed": true,
          "internalType": "address",
          "name": "cfxAccount",
          "type": "address"
        },
        {
          "indexed": true,
          "internalType": "address",
          "name": "evmAccount",
          "type": "address"
        },
        {
          "indexed": false,
          "internalType": "uint256[]",
          "name": "tokenIds",
          "type": "uint256[]"
        }
      ],
      "name": "CrossToEvm",
      "type": "event"
    },
    {
      "anonymous": false,
      "inputs": [
        {
          "indexed": true,
          "internalType": "address",
          "name": "previousOwner",
          "type": "address"
        },
        {
          "indexed": true,
          "internalType": "address",
          "name": "newOwner",
          "type": "address"
        }
      ],
      "name": "OwnershipTransferred",
      "type": "event"
    },
    {
      "anonymous": false,
      "inputs": [
        {
          "indexed": true,
          "internalType": "address",
          "name": "token",
          "type": "address"
        },
        {
          "indexed": true,
          "internalType": "address",
          "name": "cfxAccount",
          "type": "address"
        },
        {
          "indexed": true,
          "internalType": "address",
          "name": "evmAccount",
          "type": "address"
        },
        {
          "indexed": false,
          "internalType": "uint256[]",
          "name": "tokenIds",
          "type": "uint256[]"
        }
      ],
      "name": "WithdrawFromEvm",
      "type": "event"
    },
    {
      "anonymous": false,
      "inputs": [
        {
          "indexed": true,
          "internalType": "address",
          "name": "token",
          "type": "address"
        },
        {
          "indexed": true,
          "internalType": "address",
          "name": "cfxAccount",
          "type": "address"
        },
        {
          "indexed": true,
          "internalType": "address",
          "name": "evmAccount",
          "type": "address"
        },
        {
          "indexed": false,
          "internalType": "uint256[]",
          "name": "tokenIds",
          "type": "uint256[]"
        }
      ],
      "name": "WithdrawToEvm",
      "type": "event"
    },
    {
      "inputs": [],
      "name": "beacon",
      "outputs": [
        {
          "internalType": "address",
          "name": "",
          "type": "address"
        }
      ],
      "stateMutability": "view",
      "type": "function"
    },
    {
      "inputs": [
        {
          "internalType": "address",
          "name": "_evmToken",
          "type": "address"
        }
      ],
      "name": "createMappedToken",
      "outputs": [],
      "stateMutability": "nonpayable",
      "type": "function"
    },
    {
      "inputs": [
        {
          "internalType": "address",
          "name": "_evmToken",
          "type": "address"
        },
        {
          "internalType": "address",
          "name": "_evmAccount",
          "type": "address"
        },
        {
          "internalType": "uint256[]",
          "name": "_tokenIds",
          "type": "uint256[]"
        }
      ],
      "name": "crossFromEvm",
      "outputs": [],
      "stateMutability": "nonpayable",
      "type": "function"
    },
    {
      "inputs": [],
      "name": "crossSpaceCall",
      "outputs": [
        {
          "internalType": "contract ICrossSpaceCall",
          "name": "",
          "type": "address"
        }
      ],
      "stateMutability": "view",
      "type": "function"
    },
    {
      "inputs": [
        {
          "internalType": "contract IERC721",
          "name": "_token",
          "type": "address"
        },
        {
          "internalType": "address",
          "name": "_evmAccount",
          "type": "address"
        },
        {
          "internalType": "uint256[]",
          "name": "_tokenIds",
          "type": "uint256[]"
        }
      ],
      "name": "crossToEvm",
      "outputs": [],
      "stateMutability": "nonpayable",
      "type": "function"
    },
    {
      "inputs": [],
      "name": "evmSide",
      "outputs": [
        {
          "internalType": "address",
          "name": "",
          "type": "address"
        }
      ],
      "stateMutability": "view",
      "type": "function"
    },
    {
      "inputs": [
        {
          "internalType": "uint256",
          "name": "offset",
          "type": "uint256"
        }
      ],
      "name": "getTokens",
      "outputs": [
        {
          "internalType": "address[]",
          "name": "result",
          "type": "address[]"
        },
        {
          "internalType": "uint256",
          "name": "cnt",
          "type": "uint256"
        }
      ],
      "stateMutability": "view",
      "type": "function"
    },
    {
      "inputs": [
        {
          "internalType": "address",
          "name": "_evmSide",
          "type": "address"
        },
        {
          "internalType": "address",
          "name": "_beacon",
          "type": "address"
        }
      ],
      "name": "initialize",
      "outputs": [],
      "stateMutability": "nonpayable",
      "type": "function"
    },
    {
      "inputs": [],
      "name": "initialized",
      "outputs": [
        {
          "internalType": "bool",
          "name": "",
          "type": "bool"
        }
      ],
      "stateMutability": "view",
      "type": "function"
    },
    {
      "inputs": [
        {
          "internalType": "uint256",
          "name": "",
          "type": "uint256"
        }
      ],
      "name": "mappedTokenList",
      "outputs": [
        {
          "internalType": "address",
          "name": "",
          "type": "address"
        }
      ],
      "stateMutability": "view",
      "type": "function"
    },
    {
      "inputs": [
        {
          "internalType": "address",
          "name": "",
          "type": "address"
        }
      ],
      "name": "mappedTokens",
      "outputs": [
        {
          "internalType": "address",
          "name": "",
          "type": "address"
        }
      ],
      "stateMutability": "view",
      "type": "function"
    },
    {
      "inputs": [
        {
          "internalType": "address",
          "name": "_operator",
          "type": "address"
        },
        {
          "internalType": "address",
          "name": "_from",
          "type": "address"
        },
        {
          "internalType": "uint256",
          "name": "_tokenId",
          "type": "uint256"
        },
        {
          "internalType": "bytes",
          "name": "_data",
          "type": "bytes"
        }
      ],
      "name": "onERC721Received",
      "outputs": [
        {
          "internalType": "bytes4",
          "name": "",
          "type": "bytes4"
        }
      ],
      "stateMutability": "nonpayable",
      "type": "function"
    },
    {
      "inputs": [],
      "name": "owner",
      "outputs": [
        {
          "internalType": "address",
          "name": "",
          "type": "address"
        }
      ],
      "stateMutability": "view",
      "type": "function"
    },
    {
      "inputs": [
        {
          "internalType": "contract IERC721Metadata",
          "name": "_token",
          "type": "address"
        }
      ],
      "name": "registerMetadata",
      "outputs": [],
      "stateMutability": "nonpayable",
      "type": "function"
    },
    {
      "inputs": [],
      "name": "renounceOwnership",
      "outputs": [],
      "stateMutability": "nonpayable",
      "type": "function"
    },
    {
      "inputs": [
        {
          "internalType": "address",
          "name": "",
          "type": "address"
        }
      ],
      "name": "sourceTokens",
      "outputs": [
        {
          "internalType": "address",
          "name": "",
          "type": "address"
        }
      ],
      "stateMutability": "view",
      "type": "function"
    },
    {
      "inputs": [
        {
          "internalType": "address",
          "name": "newOwner",
          "type": "address"
        }
      ],
      "name": "transferOwnership",
      "outputs": [],
      "stateMutability": "nonpayable",
      "type": "function"
    },
    {
      "inputs": [
        {
          "internalType": "contract IERC721",
          "name": "_token",
          "type": "address"
        },
        {
          "internalType": "address",
          "name": "_evmAccount",
          "type": "address"
        },
        {
          "internalType": "uint256[]",
          "name": "_tokenIds",
          "type": "uint256[]"
        }
      ],
      "name": "withdrawFromEvm",
      "outputs": [],
      "stateMutability": "nonpayable",
      "type": "function"
    },
    {
      "inputs": [
        {
          "internalType": "address",
          "name": "_evmToken",
          "type": "address"
        },
        {
          "internalType": "address",
          "name": "_evmAccount",
          "type": "address"
        },
        {
          "internalType": "uint256[]",
          "name": "_tokenIds",
          "type": "uint256[]"
        }
      ],
      "name": "withdrawToEvm",
      "outputs": [],
      "stateMutability": "nonpayable",
      "type": "function"
    }
  ],
  "bytecode": "0x60806040523480156200001157600080fd5b5062000032620000266200004060201b60201c565b6200004860201b60201c565b60016005819055506200010c565b600033905090565b60008060009054906101000a900473ffffffffffffffffffffffffffffffffffffffff169050816000806101000a81548173ffffffffffffffffffffffffffffffffffffffff021916908373ffffffffffffffffffffffffffffffffffffffff1602179055508173ffffffffffffffffffffffffffffffffffffffff168173ffffffffffffffffffffffffffffffffffffffff167f8be0079c531659141344cd1fd0a4f28419497f9722a3daafe3b4186f6b6457e060405160405180910390a35050565b614bd3806200011c6000396000f3fe60806040523480156200001157600080fd5b50600436106200013c5760003560e01c8063849cd5cf11620000bd578063c056cda8116200007b578063c056cda81462000337578063d3c9cc261462000359578063e6ede14d1462000390578063f2fde38b14620003c6578063f68c1d9314620003e6576200013c565b8063849cd5cf146200027f5780638da5cb5b14620002b557806395c7695b14620002d7578063a21f422b14620002f7578063bbce3ca11462000317576200013c565b8063485cc955116200010b578063485cc95514620001f157806359659e9014620002115780636b5aef101462000233578063715018a614620002535780637fc8dfbf146200025f576200013c565b8063150b7a021462000141578063158ef93e146200017757806320325aae146200019957806338e3eadf14620001bb575b600080fd5b6200015f600480360381019062000159919062002b56565b62000406565b6040516200016e919062003365565b60405180910390f35b620001816200041b565b60405162000190919062003314565b60405180910390f35b620001a36200042e565b604051620001b291906200311a565b60405180910390f35b620001d96004803603810190620001d3919062002d7d565b62000454565b604051620001e891906200311a565b60405180910390f35b6200020f600480360381019062000209919062002aa1565b62000494565b005b6200021b62000732565b6040516200022a91906200311a565b60405180910390f35b6200025160048036038101906200024b919062002ae2565b62000758565b005b6200025d62000cac565b005b6200027d600480360381019062000277919062002c51565b62000cc4565b005b6200029d600480360381019062000297919062002a49565b620010ac565b604051620002ac91906200311a565b60405180910390f35b620002bf620010df565b604051620002ce91906200311a565b60405180910390f35b620002f56004803603810190620002ef919062002c25565b62001108565b005b6200031560048036038101906200030f919062002ae2565b62001443565b005b6200033560048036038101906200032f919062002a49565b62001858565b005b6200034162001990565b60405162000350919062003382565b60405180910390f35b62000377600480360381019062000371919062002d7d565b620019b6565b60405162000387929190620032ba565b60405180910390f35b620003ae6004803603810190620003a8919062002a49565b62001b8e565b604051620003bd91906200311a565b60405180910390f35b620003e46004803603810190620003de919062002a49565b62001bc1565b005b620004046004803603810190620003fe919062002c51565b62001c4c565b005b600063150b7a0260e01b905095945050505050565b600760149054906101000a900460ff1681565b600760009054906101000a900473ffffffffffffffffffffffffffffffffffffffff1681565b600381815481106200046557600080fd5b906000526020600020016000915054906101000a900473ffffffffffffffffffffffffffffffffffffffff1681565b600760149054906101000a900460ff1615620004e7576040517f08c379a0000000000000000000000000000000000000000000000000000000008152600401620004de90620033da565b60405180910390fd5b6001600760146101000a81548160ff02191690831515021790555081600760006101000a81548173ffffffffffffffffffffffffffffffffffffffff021916908373ffffffffffffffffffffffffffffffffffffffff16021790555080600460006101000a81548173ffffffffffffffffffffffffffffffffffffffff021916908373ffffffffffffffffffffffffffffffffffffffff160217905550730888000000000000000000000000000000000006600660006101000a81548173ffffffffffffffffffffffffffffffffffffffff021916908373ffffffffffffffffffffffffffffffffffffffff160217905550600660009054906101000a900473ffffffffffffffffffffffffffffffffffffffff1673ffffffffffffffffffffffffffffffffffffffff1663bea05ee3600760009054906101000a900473ffffffffffffffffffffffffffffffffffffffff1660601b636fcfa4ce60e01b604051602401604051602081830303815290604052907bffffffffffffffffffffffffffffffffffffffffffffffffffffffff19166020820180517bffffffffffffffffffffffffffffffffffffffffffffffffffffffff83818316178352505050506040518363ffffffff1660e01b8152600401620006c792919062003331565b600060405180830381600087803b158015620006e257600080fd5b505af1158015620006f7573d6000803e3d6000fd5b505050506040513d6000823e3d601f19601f8201168201806040525081019062000722919062002be0565b506200072e3362002032565b5050565b600460009054906101000a900473ffffffffffffffffffffffffffffffffffffffff1681565b60026005541415620007a1576040517f08c379a00000000000000000000000000000000000000000000000000000000081526004016200079890620034c8565b60405180910390fd5b6002600581905550600073ffffffffffffffffffffffffffffffffffffffff16600160008673ffffffffffffffffffffffffffffffffffffffff1673ffffffffffffffffffffffffffffffffffffffff16815260200190815260200160002060009054906101000a900473ffffffffffffffffffffffffffffffffffffffff1673ffffffffffffffffffffffffffffffffffffffff1614156200087b576040517f08c379a000000000000000000000000000000000000000000000000000000000815260040162000872906200341e565b60405180910390fd5b60005b8282905081101562000ac057600160008673ffffffffffffffffffffffffffffffffffffffff1673ffffffffffffffffffffffffffffffffffffffff16815260200190815260200160002060009054906101000a900473ffffffffffffffffffffffffffffffffffffffff1673ffffffffffffffffffffffffffffffffffffffff166323b872dd333086868681811062000941577f4e487b7100000000000000000000000000000000000000000000000000000000600052603260045260246000fd5b905060200201356040518463ffffffff1660e01b81526004016200096893929190620031d3565b600060405180830381600087803b1580156200098357600080fd5b505af115801562000998573d6000803e3d6000fd5b50505050600160008673ffffffffffffffffffffffffffffffffffffffff1673ffffffffffffffffffffffffffffffffffffffff16815260200190815260200160002060009054906101000a900473ffffffffffffffffffffffffffffffffffffffff1673ffffffffffffffffffffffffffffffffffffffff166342966c6884848481811062000a51577f4e487b7100000000000000000000000000000000000000000000000000000000600052603260045260246000fd5b905060200201356040518263ffffffff1660e01b815260040162000a769190620034ea565b600060405180830381600087803b15801562000a9157600080fd5b505af115801562000aa6573d6000803e3d6000fd5b50505050808062000ab79062003837565b9150506200087e565b50600660009054906101000a900473ffffffffffffffffffffffffffffffffffffffff1673ffffffffffffffffffffffffffffffffffffffff1663bea05ee3600760009054906101000a900473ffffffffffffffffffffffffffffffffffffffff1660601b6344d3021960e01b8787878760405160240162000b4694939291906200318d565b604051602081830303815290604052907bffffffffffffffffffffffffffffffffffffffffffffffffffffffff19166020820180517bffffffffffffffffffffffffffffffffffffffffffffffffffffffff83818316178352505050506040518363ffffffff1660e01b815260040162000bc292919062003331565b600060405180830381600087803b15801562000bdd57600080fd5b505af115801562000bf2573d6000803e3d6000fd5b505050506040513d6000823e3d601f19601f8201168201806040525081019062000c1d919062002be0565b508273ffffffffffffffffffffffffffffffffffffffff163373ffffffffffffffffffffffffffffffffffffffff168573ffffffffffffffffffffffffffffffffffffffff167f5afb478ae7829db952bfc9004cf7c5b493c806c9773d30d0d77afc261b1d2cee858560405162000c96929190620032ee565b60405180910390a4600160058190555050505050565b62000cb6620020f6565b62000cc2600062002032565b565b6002600554141562000d0d576040517f08c379a000000000000000000000000000000000000000000000000000000000815260040162000d0490620034c8565b60405180910390fd5b6002600581905550600073ffffffffffffffffffffffffffffffffffffffff16600260008673ffffffffffffffffffffffffffffffffffffffff1673ffffffffffffffffffffffffffffffffffffffff16815260200190815260200160002060009054906101000a900473ffffffffffffffffffffffffffffffffffffffff1673ffffffffffffffffffffffffffffffffffffffff161462000de6576040517f08c379a000000000000000000000000000000000000000000000000000000000815260040162000ddd9062003440565b60405180910390fd5b600660009054906101000a900473ffffffffffffffffffffffffffffffffffffffff1673ffffffffffffffffffffffffffffffffffffffff1663bea05ee3600760009054906101000a900473ffffffffffffffffffffffffffffffffffffffff1660601b636a1c2e4960e01b878733888860405160240162000e6d95949392919062003137565b604051602081830303815290604052907bffffffffffffffffffffffffffffffffffffffffffffffffffffffff19166020820180517bffffffffffffffffffffffffffffffffffffffffffffffffffffffff83818316178352505050506040518363ffffffff1660e01b815260040162000ee992919062003331565b600060405180830381600087803b15801562000f0457600080fd5b505af115801562000f19573d6000803e3d6000fd5b505050506040513d6000823e3d601f19601f8201168201806040525081019062000f44919062002be0565b5060005b828290508110156200101d578473ffffffffffffffffffffffffffffffffffffffff166342842e0e303386868681811062000fac577f4e487b7100000000000000000000000000000000000000000000000000000000600052603260045260246000fd5b905060200201356040518463ffffffff1660e01b815260040162000fd393929190620031d3565b600060405180830381600087803b15801562000fee57600080fd5b505af115801562001003573d6000803e3d6000fd5b505050508080620010149062003837565b91505062000f48565b508273ffffffffffffffffffffffffffffffffffffffff163373ffffffffffffffffffffffffffffffffffffffff168573ffffffffffffffffffffffffffffffffffffffff167f57de5fbe86fbf6570855aee90a8e95a4306991fe3219872f47149362054530a3858560405162001096929190620032ee565b60405180910390a4600160058190555050505050565b60026020528060005260406000206000915054906101000a900473ffffffffffffffffffffffffffffffffffffffff1681565b60008060009054906101000a900473ffffffffffffffffffffffffffffffffffffffff16905090565b600073ffffffffffffffffffffffffffffffffffffffff16600260008373ffffffffffffffffffffffffffffffffffffffff1673ffffffffffffffffffffffffffffffffffffffff16815260200190815260200160002060009054906101000a900473ffffffffffffffffffffffffffffffffffffffff1673ffffffffffffffffffffffffffffffffffffffff1614620011d9576040517f08c379a0000000000000000000000000000000000000000000000000000000008152600401620011d09062003440565b60405180910390fd5b600660009054906101000a900473ffffffffffffffffffffffffffffffffffffffff1673ffffffffffffffffffffffffffffffffffffffff1663bea05ee3600760009054906101000a900473ffffffffffffffffffffffffffffffffffffffff1660601b63c48f116160e01b848573ffffffffffffffffffffffffffffffffffffffff166306fdde036040518163ffffffff1660e01b815260040160006040518083038186803b1580156200128d57600080fd5b505afa158015620012a2573d6000803e3d6000fd5b505050506040513d6000823e3d601f19601f82011682018060405250810190620012cd919062002cc5565b8673ffffffffffffffffffffffffffffffffffffffff166395d89b416040518163ffffffff1660e01b815260040160006040518083038186803b1580156200131457600080fd5b505afa15801562001329573d6000803e3d6000fd5b505050506040513d6000823e3d601f19601f8201168201806040525081019062001354919062002cc5565b604051602401620013689392919062003210565b604051602081830303815290604052907bffffffffffffffffffffffffffffffffffffffffffffffffffffffff19166020820180517bffffffffffffffffffffffffffffffffffffffffffffffffffffffff83818316178352505050506040518363ffffffff1660e01b8152600401620013e492919062003331565b600060405180830381600087803b158015620013ff57600080fd5b505af115801562001414573d6000803e3d6000fd5b505050506040513d6000823e3d601f19601f820116820180604052508101906200143f919062002be0565b5050565b600260055414156200148c576040517f08c379a00000000000000000000000000000000000000000000000000000000081526004016200148390620034c8565b60405180910390fd5b6002600581905550600073ffffffffffffffffffffffffffffffffffffffff16600160008673ffffffffffffffffffffffffffffffffffffffff1673ffffffffffffffffffffffffffffffffffffffff16815260200190815260200160002060009054906101000a900473ffffffffffffffffffffffffffffffffffffffff1673ffffffffffffffffffffffffffffffffffffffff161415620015355762001534846200217b565b5b600660009054906101000a900473ffffffffffffffffffffffffffffffffffffffff1673ffffffffffffffffffffffffffffffffffffffff1663bea05ee3600760009054906101000a900473ffffffffffffffffffffffffffffffffffffffff1660601b6390ff1ae660e01b8787338888604051602401620015bc95949392919062003137565b604051602081830303815290604052907bffffffffffffffffffffffffffffffffffffffffffffffffffffffff19166020820180517bffffffffffffffffffffffffffffffffffffffffffffffffffffffff83818316178352505050506040518363ffffffff1660e01b81526004016200163892919062003331565b600060405180830381600087803b1580156200165357600080fd5b505af115801562001668573d6000803e3d6000fd5b505050506040513d6000823e3d601f19601f8201168201806040525081019062001693919062002be0565b5060005b82829050811015620017c957600160008673ffffffffffffffffffffffffffffffffffffffff1673ffffffffffffffffffffffffffffffffffffffff16815260200190815260200160002060009054906101000a900473ffffffffffffffffffffffffffffffffffffffff1673ffffffffffffffffffffffffffffffffffffffff1663a14481943385858581811062001759577f4e487b7100000000000000000000000000000000000000000000000000000000600052603260045260246000fd5b905060200201356040518363ffffffff1660e01b81526004016200177f9291906200328d565b600060405180830381600087803b1580156200179a57600080fd5b505af1158015620017af573d6000803e3d6000fd5b505050508080620017c09062003837565b91505062001697565b508273ffffffffffffffffffffffffffffffffffffffff163373ffffffffffffffffffffffffffffffffffffffff168573ffffffffffffffffffffffffffffffffffffffff167f146b79561262b31c2b6c79fde8a3e6ed700f656ef6fb812636003f92fab33d5f858560405162001842929190620032ee565b60405180910390a4600160058190555050505050565b60026005541415620018a1576040517f08c379a00000000000000000000000000000000000000000000000000000000081526004016200189890620034c8565b60405180910390fd5b6002600581905550600073ffffffffffffffffffffffffffffffffffffffff16600160008373ffffffffffffffffffffffffffffffffffffffff1673ffffffffffffffffffffffffffffffffffffffff16815260200190815260200160002060009054906101000a900473ffffffffffffffffffffffffffffffffffffffff1673ffffffffffffffffffffffffffffffffffffffff16146200197a576040517f08c379a0000000000000000000000000000000000000000000000000000000008152600401620019719062003462565b60405180910390fd5b62001985816200217b565b600160058190555050565b600660009054906101000a900473ffffffffffffffffffffffffffffffffffffffff1681565b606060006003805490509050600081606485620019d491906200361e565b10620019e15781620019f1565b606484620019f091906200361e565b5b90508381111562001b8857838162001a0a91906200367b565b67ffffffffffffffff81111562001a4a577f4e487b7100000000000000000000000000000000000000000000000000000000600052604160045260246000fd5b60405190808252806020026020018201604052801562001a795781602001602082028036833780820191505090505b50925060008490505b8181101562001b86576003818154811062001ac6577f4e487b7100000000000000000000000000000000000000000000000000000000600052603260045260246000fd5b9060005260206000200160009054906101000a900473ffffffffffffffffffffffffffffffffffffffff1684868362001b0091906200367b565b8151811062001b38577f4e487b7100000000000000000000000000000000000000000000000000000000600052603260045260246000fd5b602002602001019073ffffffffffffffffffffffffffffffffffffffff16908173ffffffffffffffffffffffffffffffffffffffff16815250508062001b7e9062003837565b905062001a82565b505b50915091565b60016020528060005260406000206000915054906101000a900473ffffffffffffffffffffffffffffffffffffffff1681565b62001bcb620020f6565b600073ffffffffffffffffffffffffffffffffffffffff168173ffffffffffffffffffffffffffffffffffffffff16141562001c3e576040517f08c379a000000000000000000000000000000000000000000000000000000000815260040162001c3590620033fc565b60405180910390fd5b62001c498162002032565b50565b6002600554141562001c95576040517f08c379a000000000000000000000000000000000000000000000000000000000815260040162001c8c90620034c8565b60405180910390fd5b6002600581905550600073ffffffffffffffffffffffffffffffffffffffff16600260008673ffffffffffffffffffffffffffffffffffffffff1673ffffffffffffffffffffffffffffffffffffffff16815260200190815260200160002060009054906101000a900473ffffffffffffffffffffffffffffffffffffffff1673ffffffffffffffffffffffffffffffffffffffff161462001d6e576040517f08c379a000000000000000000000000000000000000000000000000000000000815260040162001d659062003440565b60405180910390fd5b60005b8282905081101562001e46578473ffffffffffffffffffffffffffffffffffffffff166342842e0e333086868681811062001dd5577f4e487b7100000000000000000000000000000000000000000000000000000000600052603260045260246000fd5b905060200201356040518463ffffffff1660e01b815260040162001dfc93929190620031d3565b600060405180830381600087803b15801562001e1757600080fd5b505af115801562001e2c573d6000803e3d6000fd5b50505050808062001e3d9062003837565b91505062001d71565b50600660009054906101000a900473ffffffffffffffffffffffffffffffffffffffff1673ffffffffffffffffffffffffffffffffffffffff1663bea05ee3600760009054906101000a900473ffffffffffffffffffffffffffffffffffffffff1660601b63fb0b475b60e01b8787878760405160240162001ecc94939291906200318d565b604051602081830303815290604052907bffffffffffffffffffffffffffffffffffffffffffffffffffffffff19166020820180517bffffffffffffffffffffffffffffffffffffffffffffffffffffffff83818316178352505050506040518363ffffffff1660e01b815260040162001f4892919062003331565b600060405180830381600087803b15801562001f6357600080fd5b505af115801562001f78573d6000803e3d6000fd5b505050506040513d6000823e3d601f19601f8201168201806040525081019062001fa3919062002be0565b508273ffffffffffffffffffffffffffffffffffffffff163373ffffffffffffffffffffffffffffffffffffffff168573ffffffffffffffffffffffffffffffffffffffff167f17493835a277b77bff8e252b168537d8de94b9eeb0527d9a32275b95d453ef3985856040516200201c929190620032ee565b60405180910390a4600160058190555050505050565b60008060009054906101000a900473ffffffffffffffffffffffffffffffffffffffff169050816000806101000a81548173ffffffffffffffffffffffffffffffffffffffff021916908373ffffffffffffffffffffffffffffffffffffffff1602179055508173ffffffffffffffffffffffffffffffffffffffff168173ffffffffffffffffffffffffffffffffffffffff167f8be0079c531659141344cd1fd0a4f28419497f9722a3daafe3b4186f6b6457e060405160405180910390a35050565b62002100620024e2565b73ffffffffffffffffffffffffffffffffffffffff1662002120620010df565b73ffffffffffffffffffffffffffffffffffffffff161462002179576040517f08c379a0000000000000000000000000000000000000000000000000000000008152600401620021709062003484565b60405180910390fd5b565b6000600660009054906101000a900473ffffffffffffffffffffffffffffffffffffffff1673ffffffffffffffffffffffffffffffffffffffff1663bea05ee3600760009054906101000a900473ffffffffffffffffffffffffffffffffffffffff1660601b63849cd5cf60e01b85604051602401620021fc91906200311a565b604051602081830303815290604052907bffffffffffffffffffffffffffffffffffffffffffffffffffffffff19166020820180517bffffffffffffffffffffffffffffffffffffffffffffffffffffffff83818316178352505050506040518363ffffffff1660e01b81526004016200227892919062003331565b600060405180830381600087803b1580156200229357600080fd5b505af1158015620022a8573d6000803e3d6000fd5b505050506040513d6000823e3d601f19601f82011682018060405250810190620022d3919062002be0565b806020019051810190620022e8919062002a75565b9050600073ffffffffffffffffffffffffffffffffffffffff168173ffffffffffffffffffffffffffffffffffffffff16146200235c576040517f08c379a00000000000000000000000000000000000000000000000000000000081526004016200235390620034a6565b60405180910390fd5b600080600660009054906101000a900473ffffffffffffffffffffffffffffffffffffffff1673ffffffffffffffffffffffffffffffffffffffff1663bea05ee3600760009054906101000a900473ffffffffffffffffffffffffffffffffffffffff1660601b6313ff7e9f60e01b87604051602401620023de91906200311a565b604051602081830303815290604052907bffffffffffffffffffffffffffffffffffffffffffffffffffffffff19166020820180517bffffffffffffffffffffffffffffffffffffffffffffffffffffffff83818316178352505050506040518363ffffffff1660e01b81526004016200245a92919062003331565b600060405180830381600087803b1580156200247557600080fd5b505af11580156200248a573d6000803e3d6000fd5b505050506040513d6000823e3d601f19601f82011682018060405250810190620024b5919062002be0565b806020019051810190620024ca919062002d0a565b91509150620024db848383620024ea565b5050505050565b600033905090565b60008073ffffffffffffffffffffffffffffffffffffffff16600160008673ffffffffffffffffffffffffffffffffffffffff1673ffffffffffffffffffffffffffffffffffffffff16815260200190815260200160002060009054906101000a900473ffffffffffffffffffffffffffffffffffffffff1673ffffffffffffffffffffffffffffffffffffffff161415620027e05783604051602001620025939190620030fd565b60405160208183030381529060405280519060200120600460009054906101000a900473ffffffffffffffffffffffffffffffffffffffff16604051620025da906200284a565b620025e691906200325b565b8190604051809103906000f590508015801562002607573d6000803e3d6000fd5b5090508073ffffffffffffffffffffffffffffffffffffffff16634cd88b7684846040518363ffffffff1660e01b8152600401620026479291906200339f565b600060405180830381600087803b1580156200266257600080fd5b505af115801562002677573d6000803e3d6000fd5b5050505080600160008673ffffffffffffffffffffffffffffffffffffffff1673ffffffffffffffffffffffffffffffffffffffff16815260200190815260200160002060006101000a81548173ffffffffffffffffffffffffffffffffffffffff021916908373ffffffffffffffffffffffffffffffffffffffff16021790555083600260008373ffffffffffffffffffffffffffffffffffffffff1673ffffffffffffffffffffffffffffffffffffffff16815260200190815260200160002060006101000a81548173ffffffffffffffffffffffffffffffffffffffff021916908373ffffffffffffffffffffffffffffffffffffffff1602179055506003849080600181540180825580915050600190039060005260206000200160009091909190916101000a81548173ffffffffffffffffffffffffffffffffffffffff021916908373ffffffffffffffffffffffffffffffffffffffff16021790555062002843565b600160008573ffffffffffffffffffffffffffffffffffffffff1673ffffffffffffffffffffffffffffffffffffffff16815260200190815260200160002060009054906101000a900473ffffffffffffffffffffffffffffffffffffffff1690505b9392505050565b6110358062003b6983390190565b60006200286f620028698462003530565b62003507565b9050828152602081018484840111156200288857600080fd5b62002895848285620037cb565b509392505050565b6000620028b4620028ae8462003566565b62003507565b905082815260208101848484011115620028cd57600080fd5b620028da848285620037cb565b509392505050565b600081359050620028f38162003ae6565b92915050565b6000815190506200290a8162003b00565b92915050565b60008083601f8401126200292357600080fd5b8235905067ffffffffffffffff8111156200293d57600080fd5b6020830191508360208202830111156200295657600080fd5b9250929050565b60008083601f8401126200297057600080fd5b8235905067ffffffffffffffff8111156200298a57600080fd5b602083019150836001820283011115620029a357600080fd5b9250929050565b600082601f830112620029bc57600080fd5b8151620029ce84826020860162002858565b91505092915050565b600081359050620029e88162003b1a565b92915050565b600081359050620029ff8162003b34565b92915050565b600082601f83011262002a1757600080fd5b815162002a298482602086016200289d565b91505092915050565b60008135905062002a438162003b4e565b92915050565b60006020828403121562002a5c57600080fd5b600062002a6c84828501620028e2565b91505092915050565b60006020828403121562002a8857600080fd5b600062002a9884828501620028f9565b91505092915050565b6000806040838503121562002ab557600080fd5b600062002ac585828601620028e2565b925050602062002ad885828601620028e2565b9150509250929050565b6000806000806060858703121562002af957600080fd5b600062002b0987828801620028e2565b945050602062002b1c87828801620028e2565b935050604085013567ffffffffffffffff81111562002b3a57600080fd5b62002b488782880162002910565b925092505092959194509250565b60008060008060006080868803121562002b6f57600080fd5b600062002b7f88828901620028e2565b955050602062002b9288828901620028e2565b945050604062002ba58882890162002a32565b935050606086013567ffffffffffffffff81111562002bc357600080fd5b62002bd1888289016200295d565b92509250509295509295909350565b60006020828403121562002bf357600080fd5b600082015167ffffffffffffffff81111562002c0e57600080fd5b62002c1c84828501620029aa565b91505092915050565b60006020828403121562002c3857600080fd5b600062002c4884828501620029d7565b91505092915050565b6000806000806060858703121562002c6857600080fd5b600062002c7887828801620029ee565b945050602062002c8b87828801620028e2565b935050604085013567ffffffffffffffff81111562002ca957600080fd5b62002cb78782880162002910565b925092505092959194509250565b60006020828403121562002cd857600080fd5b600082015167ffffffffffffffff81111562002cf357600080fd5b62002d018482850162002a05565b91505092915050565b6000806040838503121562002d1e57600080fd5b600083015167ffffffffffffffff81111562002d3957600080fd5b62002d478582860162002a05565b925050602083015167ffffffffffffffff81111562002d6557600080fd5b62002d738582860162002a05565b9150509250929050565b60006020828403121562002d9057600080fd5b600062002da08482850162002a32565b91505092915050565b600062002db7838362002dc3565b60208301905092915050565b62002dce81620036b6565b82525050565b62002ddf81620036b6565b82525050565b62002dfa62002df482620036b6565b62003885565b82525050565b600062002e0d82620035ac565b62002e198185620035da565b935062002e26836200359c565b8060005b8381101562002e5d57815162002e41888262002da9565b975062002e4e83620035cd565b92505060018101905062002e2a565b5085935050505092915050565b600062002e788385620035eb565b93507f07ffffffffffffffffffffffffffffffffffffffffffffffffffffffffffffff83111562002ea857600080fd5b60208302925062002ebb838584620037bc565b82840190509392505050565b62002ed281620036de565b82525050565b62002ee381620036ea565b82525050565b62002ef48162003716565b82525050565b600062002f0782620035b7565b62002f138185620035fc565b935062002f25818560208601620037cb565b62002f30816200390b565b840191505092915050565b62002f468162003794565b82525050565b600062002f5982620035c2565b62002f6581856200360d565b935062002f77818560208601620037cb565b62002f82816200390b565b840191505092915050565b600062002f9c6018836200360d565b915062002fa98262003929565b602082019050919050565b600062002fc36026836200360d565b915062002fd08262003952565b604082019050919050565b600062002fea601d836200360d565b915062002ff782620039a1565b602082019050919050565b600062003011602b836200360d565b91506200301e82620039ca565b604082019050919050565b600062003038601c836200360d565b9150620030458262003a19565b602082019050919050565b60006200305f6020836200360d565b91506200306c8262003a42565b602082019050919050565b600062003086602c836200360d565b9150620030938262003a6b565b604082019050919050565b6000620030ad600083620035fc565b9150620030ba8262003aba565b600082019050919050565b6000620030d4601f836200360d565b9150620030e18262003abd565b602082019050919050565b620030f7816200378a565b82525050565b60006200310b828462002de5565b60148201915081905092915050565b600060208201905062003131600083018462002dd4565b92915050565b60006080820190506200314e600083018862002dd4565b6200315d602083018762002dd4565b6200316c604083018662002dd4565b81810360608301526200318181848662002e6a565b90509695505050505050565b6000606082019050620031a4600083018762002dd4565b620031b3602083018662002dd4565b8181036040830152620031c881848662002e6a565b905095945050505050565b6000606082019050620031ea600083018662002dd4565b620031f9602083018562002dd4565b620032086040830184620030ec565b949350505050565b600060608201905062003227600083018662002dd4565b81810360208301526200323b818562002f4c565b9050818103604083015262003251818462002f4c565b9050949350505050565b600060408201905062003272600083018462002dd4565b818103602083015262003285816200309e565b905092915050565b6000604082019050620032a4600083018562002dd4565b620032b36020830184620030ec565b9392505050565b60006040820190508181036000830152620032d6818562002e00565b9050620032e76020830184620030ec565b9392505050565b600060208201905081810360008301526200330b81848662002e6a565b90509392505050565b60006020820190506200332b600083018462002ec7565b92915050565b600060408201905062003348600083018562002ed8565b81810360208301526200335c818462002efa565b90509392505050565b60006020820190506200337c600083018462002ee9565b92915050565b600060208201905062003399600083018462002f3b565b92915050565b60006040820190508181036000830152620033bb818562002f4c565b90508181036020830152620033d1818462002f4c565b90509392505050565b60006020820190508181036000830152620033f58162002f8d565b9050919050565b60006020820190508181036000830152620034178162002fb4565b9050919050565b60006020820190508181036000830152620034398162002fdb565b9050919050565b600060208201905081810360008301526200345b8162003002565b9050919050565b600060208201905081810360008301526200347d8162003029565b9050919050565b600060208201905081810360008301526200349f8162003050565b9050919050565b60006020820190508181036000830152620034c18162003077565b9050919050565b60006020820190508181036000830152620034e381620030c5565b9050919050565b6000602082019050620035016000830184620030ec565b92915050565b60006200351362003526565b905062003521828262003801565b919050565b6000604051905090565b600067ffffffffffffffff8211156200354e576200354d620038dc565b5b62003559826200390b565b9050602081019050919050565b600067ffffffffffffffff821115620035845762003583620038dc565b5b6200358f826200390b565b9050602081019050919050565b6000819050602082019050919050565b600081519050919050565b600081519050919050565b600081519050919050565b6000602082019050919050565b600082825260208201905092915050565b600082825260208201905092915050565b600082825260208201905092915050565b600082825260208201905092915050565b60006200362b826200378a565b915062003638836200378a565b9250827fffffffffffffffffffffffffffffffffffffffffffffffffffffffffffffffff0382111562003670576200366f620038ad565b5b828201905092915050565b600062003688826200378a565b915062003695836200378a565b925082821015620036ab57620036aa620038ad565b5b828203905092915050565b6000620036c3826200376a565b9050919050565b6000620036d7826200376a565b9050919050565b60008115159050919050565b60007fffffffffffffffffffffffffffffffffffffffff00000000000000000000000082169050919050565b60007fffffffff0000000000000000000000000000000000000000000000000000000082169050919050565b60006200374f82620036b6565b9050919050565b60006200376382620036b6565b9050919050565b600073ffffffffffffffffffffffffffffffffffffffff82169050919050565b6000819050919050565b6000620037a182620037a8565b9050919050565b6000620037b5826200376a565b9050919050565b82818337600083830152505050565b60005b83811015620037eb578082015181840152602081019050620037ce565b83811115620037fb576000848401525b50505050565b6200380c826200390b565b810181811067ffffffffffffffff821117156200382e576200382d620038dc565b5b80604052505050565b600062003844826200378a565b91507fffffffffffffffffffffffffffffffffffffffffffffffffffffffffffffffff8214156200387a5762003879620038ad565b5b600182019050919050565b6000620038928262003899565b9050919050565b6000620038a6826200391c565b9050919050565b7f4e487b7100000000000000000000000000000000000000000000000000000000600052601160045260246000fd5b7f4e487b7100000000000000000000000000000000000000000000000000000000600052604160045260246000fd5b6000601f19601f8301169050919050565b60008160601b9050919050565b7f436f6e666c7578536964653a20696e697469616c697a65640000000000000000600082015250565b7f4f776e61626c653a206e6577206f776e657220697320746865207a65726f206160008201527f6464726573730000000000000000000000000000000000000000000000000000602082015250565b7f436f6e666c7578536964653a206e6f74206d617070656420746f6b656e000000600082015250565b7f436f6e666c7578536964653a20746f6b656e206973206d61707065642066726f60008201527f6d2065766d207370616365000000000000000000000000000000000000000000602082015250565b7f436f6e666c7578536964653a20616c7265616479206372656174656400000000600082015250565b7f4f776e61626c653a2063616c6c6572206973206e6f7420746865206f776e6572600082015250565b7f436f6e666c7578536964653a20746f6b656e206973206d61707065642066726f60008201527f6d20636f72652073706163650000000000000000000000000000000000000000602082015250565b50565b7f5265656e7472616e637947756172643a207265656e7472616e742063616c6c00600082015250565b62003af181620036b6565b811462003afd57600080fd5b50565b62003b0b81620036ca565b811462003b1757600080fd5b50565b62003b258162003742565b811462003b3157600080fd5b50565b62003b3f8162003756565b811462003b4b57600080fd5b50565b62003b59816200378a565b811462003b6557600080fd5b5056fe608060405260405162001035380380620010358339818101604052810190620000299190620005e1565b60017fa3f0ad74e5423aebfd80d3ef4346578335a9a72aeaee59ff6cb3582b35133d5160001c6200005b91906200085c565b60001b7fa3f0ad74e5423aebfd80d3ef4346578335a9a72aeaee59ff6cb3582b35133d5060001b14620000b7577f4e487b7100000000000000000000000000000000000000000000000000000000600052600160045260246000fd5b620000cb82826000620000d360201b60201c565b505062000ab7565b620000e483620001da60201b60201c565b8273ffffffffffffffffffffffffffffffffffffffff167f1cf3b03a6cf19fa2baba4df148e9dcabedea7f8a5c07840e207e5c089be95d3e60405160405180910390a2600082511180620001355750805b15620001d557620001d38373ffffffffffffffffffffffffffffffffffffffff16635c60da1b6040518163ffffffff1660e01b815260040160206040518083038186803b1580156200018657600080fd5b505afa1580156200019b573d6000803e3d6000fd5b505050506040513d601f19601f82011682018060405250810190620001c19190620005b5565b836200038960201b6200002f1760201c565b505b505050565b620001f081620003bf60201b6200005c1760201c565b62000232576040517f08c379a0000000000000000000000000000000000000000000000000000000008152600401620002299062000765565b60405180910390fd5b620002c98173ffffffffffffffffffffffffffffffffffffffff16635c60da1b6040518163ffffffff1660e01b815260040160206040518083038186803b1580156200027d57600080fd5b505afa15801562000292573d6000803e3d6000fd5b505050506040513d601f19601f82011682018060405250810190620002b89190620005b5565b620003bf60201b6200005c1760201c565b6200030b576040517f08c379a00000000000000000000000000000000000000000000000000000000081526004016200030290620007a9565b60405180910390fd5b80620003457fa3f0ad74e5423aebfd80d3ef4346578335a9a72aeaee59ff6cb3582b35133d5060001b620003d260201b6200006f1760201c565b60000160006101000a81548173ffffffffffffffffffffffffffffffffffffffff021916908373ffffffffffffffffffffffffffffffffffffffff16021790555050565b6060620003b783836040518060600160405280602781526020016200100e60279139620003dc60201b60201c565b905092915050565b600080823b905060008111915050919050565b6000819050919050565b6060620003ef84620003bf60201b60201c565b62000431576040517f08c379a0000000000000000000000000000000000000000000000000000000008152600401620004289062000787565b60405180910390fd5b6000808573ffffffffffffffffffffffffffffffffffffffff16856040516200045b919062000728565b600060405180830381855af49150503d806000811462000498576040519150601f19603f3d011682016040523d82523d6000602084013e6200049d565b606091505b5091509150620004b5828286620004c060201b60201c565b925050509392505050565b60608315620004d25782905062000525565b600083511115620004e65782518084602001fd5b816040517f08c379a00000000000000000000000000000000000000000000000000000000081526004016200051c919062000741565b60405180910390fd5b9392505050565b6000620005436200053d84620007f4565b620007cb565b9050828152602081018484840111156200055c57600080fd5b62000569848285620008d5565b509392505050565b600081519050620005828162000a9d565b92915050565b600082601f8301126200059a57600080fd5b8151620005ac8482602086016200052c565b91505092915050565b600060208284031215620005c857600080fd5b6000620005d88482850162000571565b91505092915050565b60008060408385031215620005f557600080fd5b6000620006058582860162000571565b925050602083015167ffffffffffffffff8111156200062357600080fd5b620006318582860162000588565b9150509250929050565b600062000648826200082a565b62000654818562000840565b935062000666818560208601620008d5565b80840191505092915050565b60006200067f8262000835565b6200068b81856200084b565b93506200069d818560208601620008d5565b620006a8816200099f565b840191505092915050565b6000620006c26025836200084b565b9150620006cf82620009b0565b604082019050919050565b6000620006e96026836200084b565b9150620006f682620009ff565b604082019050919050565b6000620007106030836200084b565b91506200071d8262000a4e565b604082019050919050565b60006200073682846200063b565b915081905092915050565b600060208201905081810360008301526200075d818462000672565b905092915050565b600060208201905081810360008301526200078081620006b3565b9050919050565b60006020820190508181036000830152620007a281620006da565b9050919050565b60006020820190508181036000830152620007c48162000701565b9050919050565b6000620007d7620007ea565b9050620007e582826200090b565b919050565b6000604051905090565b600067ffffffffffffffff82111562000812576200081162000970565b5b6200081d826200099f565b9050602081019050919050565b600081519050919050565b600081519050919050565b600081905092915050565b600082825260208201905092915050565b60006200086982620008cb565b91506200087683620008cb565b9250828210156200088c576200088b62000941565b5b828203905092915050565b6000620008a482620008ab565b9050919050565b600073ffffffffffffffffffffffffffffffffffffffff82169050919050565b6000819050919050565b60005b83811015620008f5578082015181840152602081019050620008d8565b8381111562000905576000848401525b50505050565b62000916826200099f565b810181811067ffffffffffffffff8211171562000938576200093762000970565b5b80604052505050565b7f4e487b7100000000000000000000000000000000000000000000000000000000600052601160045260246000fd5b7f4e487b7100000000000000000000000000000000000000000000000000000000600052604160045260246000fd5b6000601f19601f8301169050919050565b7f455243313936373a206e657720626561636f6e206973206e6f74206120636f6e60008201527f7472616374000000000000000000000000000000000000000000000000000000602082015250565b7f416464726573733a2064656c65676174652063616c6c20746f206e6f6e2d636f60008201527f6e74726163740000000000000000000000000000000000000000000000000000602082015250565b7f455243313936373a20626561636f6e20696d706c656d656e746174696f6e206960008201527f73206e6f74206120636f6e747261637400000000000000000000000000000000602082015250565b62000aa88162000897565b811462000ab457600080fd5b50565b6105478062000ac76000396000f3fe60806040523661000b57005b610013610015565b005b61001d610079565b61002d61002861007b565b610107565b565b606061005483836040518060600160405280602781526020016104eb6027913961012d565b905092915050565b600080823b905060008111915050919050565b6000819050919050565b565b60006100856101fa565b73ffffffffffffffffffffffffffffffffffffffff16635c60da1b6040518163ffffffff1660e01b815260040160206040518083038186803b1580156100ca57600080fd5b505afa1580156100de573d6000803e3d6000fd5b505050506040513d601f19601f8201168201806040525081019061010291906102cd565b905090565b3660008037600080366000845af43d6000803e8060008114610128573d6000f35b3d6000fd5b60606101388461005c565b610177576040517f08c379a000000000000000000000000000000000000000000000000000000000815260040161016e906103bc565b60405180910390fd5b6000808573ffffffffffffffffffffffffffffffffffffffff168560405161019f9190610383565b600060405180830381855af49150503d80600081146101da576040519150601f19603f3d011682016040523d82523d6000602084013e6101df565b606091505b50915091506101ef828286610251565b925050509392505050565b60006102287fa3f0ad74e5423aebfd80d3ef4346578335a9a72aeaee59ff6cb3582b35133d5060001b61006f565b60000160009054906101000a900473ffffffffffffffffffffffffffffffffffffffff16905090565b60608315610261578290506102b1565b6000835111156102745782518084602001fd5b816040517f08c379a00000000000000000000000000000000000000000000000000000000081526004016102a8919061039a565b60405180910390fd5b9392505050565b6000815190506102c7816104d3565b92915050565b6000602082840312156102df57600080fd5b60006102ed848285016102b8565b91505092915050565b6000610301826103dc565b61030b81856103f2565b935061031b818560208601610440565b80840191505092915050565b6000610332826103e7565b61033c81856103fd565b935061034c818560208601610440565b61035581610473565b840191505092915050565b600061036d6026836103fd565b915061037882610484565b604082019050919050565b600061038f82846102f6565b915081905092915050565b600060208201905081810360008301526103b48184610327565b905092915050565b600060208201905081810360008301526103d581610360565b9050919050565b600081519050919050565b600081519050919050565b600081905092915050565b600082825260208201905092915050565b600061041982610420565b9050919050565b600073ffffffffffffffffffffffffffffffffffffffff82169050919050565b60005b8381101561045e578082015181840152602081019050610443565b8381111561046d576000848401525b50505050565b6000601f19601f8301169050919050565b7f416464726573733a2064656c65676174652063616c6c20746f206e6f6e2d636f60008201527f6e74726163740000000000000000000000000000000000000000000000000000602082015250565b6104dc8161040e565b81146104e757600080fd5b5056fe416464726573733a206c6f772d6c6576656c2064656c65676174652063616c6c206661696c6564a2646970667358221220c52366338f6ac53f0623e0eb3cef0d60d638b03f8b7e8554cd8aab675fb558d864736f6c63430008020033416464726573733a206c6f772d6c6576656c2064656c65676174652063616c6c206661696c6564a26469706673582212205aeac9c75b32f77013bf75e9c05ca74eb18b27d55ed4e116e854609dd3540b1264736f6c63430008020033",
  "linkReferences": {},
  "deployedLinkReferences": {}
}