{
  "_format": "hh-sol-artifact-1",
  "contractName": "WhitelistedRole",
  "sourceName": "contracts/roles/WhitelistedRole.sol",
  "abi": [
    {
      "anonymous": false,
      "inputs": [
        {
          "indexed": true,
          "internalType": "address",
          "name": "account",
          "type": "address"
        }
      ],
      "name": "WhitelistAdminAdded",
      "type": "event"
    },
    {
      "anonymous": false,
      "inputs": [
        {
          "indexed": true,
          "internalType": "address",
          "name": "account",
          "type": "address"
        }
      ],
      "name": "WhitelistAdminRemoved",
      "type": "event"
    },
    {
      "anonymous": false,
      "inputs": [
        {
          "indexed": true,
          "internalType": "address",
          "name": "account",
          "type": "address"
        }
      ],
      "name": "WhitelistedAdded",
      "type": "event"
    },
    {
      "anonymous": false,
      "inputs": [
        {
          "indexed": true,
          "internalType": "address",
          "name": "account",
          "type": "address"
        }
      ],
      "name": "WhitelistedRemoved",
      "type": "event"
    },
    {
      "inputs": [
        {
          "internalType": "address",
          "name": "account",
          "type": "address"
        }
      ],
      "name": "addWhitelistAdmin",
      "outputs": [],
      "stateMutability": "nonpayable",
      "type": "function"
    },
    {
      "inputs": [
        {
          "internalType": "address",
          "name": "account",
          "type": "address"
        }
      ],
      "name": "addWhitelisted",
      "outputs": [],
      "stateMutability": "nonpayable",
      "type": "function"
    },
    {
      "inputs": [
        {
          "internalType": "address",
          "name": "account",
          "type": "address"
        }
      ],
      "name": "isWhitelistAdmin",
      "outputs": [
        {
          "internalType": "bool",
          "name": "",
          "type": "bool"
        }
      ],
      "stateMutability": "view",
      "type": "function"
    },
    {
      "inputs": [
        {
          "internalType": "address",
          "name": "account",
          "type": "address"
        }
      ],
      "name": "isWhitelisted",
      "outputs": [
        {
          "internalType": "bool",
          "name": "",
          "type": "bool"
        }
      ],
      "stateMutability": "view",
      "type": "function"
    },
    {
      "inputs": [
        {
          "internalType": "address",
          "name": "account",
          "type": "address"
        }
      ],
      "name": "removeWhitelisted",
      "outputs": [],
      "stateMutability": "nonpayable",
      "type": "function"
    },
    {
      "inputs": [],
      "name": "renounceWhitelistAdmin",
      "outputs": [],
      "stateMutability": "nonpayable",
      "type": "function"
    },
    {
      "inputs": [],
      "name": "renounceWhitelisted",
      "outputs": [],
      "stateMutability": "nonpayable",
      "type": "function"
    }
  ],
  "bytecode": "0x60806040523480156200001157600080fd5b5062000032620000266200003860201b60201c565b6200004060201b60201c565b6200033a565b600033905090565b6200005b816000620000a160201b620002b91790919060201c565b8073ffffffffffffffffffffffffffffffffffffffff167f22380c05984257a1cb900161c713dd71d39e74820f1aea43bd3f1bdd2096129960405160405180910390a250565b620000b382826200015460201b60201c565b15620000f6576040517f08c379a0000000000000000000000000000000000000000000000000000000008152600401620000ed906200026d565b60405180910390fd5b60018260000160008373ffffffffffffffffffffffffffffffffffffffff1673ffffffffffffffffffffffffffffffffffffffff16815260200190815260200160002060006101000a81548160ff0219169083151502179055505050565b60008073ffffffffffffffffffffffffffffffffffffffff168273ffffffffffffffffffffffffffffffffffffffff161415620001c8576040517f08c379a0000000000000000000000000000000000000000000000000000000008152600401620001bf906200028f565b60405180910390fd5b8260000160008373ffffffffffffffffffffffffffffffffffffffff1673ffffffffffffffffffffffffffffffffffffffff16815260200190815260200160002060009054906101000a900460ff16905092915050565b60006200022e601f83620002b1565b91506200023b82620002c2565b602082019050919050565b600062000255602283620002b1565b91506200026282620002eb565b604082019050919050565b6000602082019050818103600083015262000288816200021f565b9050919050565b60006020820190508181036000830152620002aa8162000246565b9050919050565b600082825260208201905092915050565b7f526f6c65733a206163636f756e7420616c72656164792068617320726f6c6500600082015250565b7f526f6c65733a206163636f756e7420697320746865207a65726f20616464726560008201527f7373000000000000000000000000000000000000000000000000000000000000602082015250565b610966806200034a6000396000f3fe608060405234801561001057600080fd5b506004361061007d5760003560e01c80634c5a628c1161005b5780634c5a628c146100ea5780637362d9c8146100f4578063bb5f747b14610110578063d6cd9473146101405761007d565b806310154bad14610082578063291d95491461009e5780633af32abf146100ba575b600080fd5b61009c60048036038101906100979190610655565b61014a565b005b6100b860048036038101906100b39190610655565b6101a5565b005b6100d460048036038101906100cf9190610655565b610200565b6040516100e19190610719565b60405180910390f35b6100f261021d565b005b61010e60048036038101906101099190610655565b61022f565b005b61012a60048036038101906101259190610655565b61028a565b6040516101379190610719565b60405180910390f35b6101486102a7565b005b61015a610155610361565b61028a565b610199576040517f08c379a000000000000000000000000000000000000000000000000000000000815260040161019090610794565b60405180910390fd5b6101a281610369565b50565b6101b56101b0610361565b61028a565b6101f4576040517f08c379a00000000000000000000000000000000000000000000000000000000081526004016101eb90610794565b60405180910390fd5b6101fd816103c3565b50565b600061021682600161041d90919063ffffffff16565b9050919050565b61022d610228610361565b6104e5565b565b61023f61023a610361565b61028a565b61027e576040517f08c379a000000000000000000000000000000000000000000000000000000000815260040161027590610794565b60405180910390fd5b6102878161053f565b50565b60006102a082600061041d90919063ffffffff16565b9050919050565b6102b76102b2610361565b6103c3565b565b6102c3828261041d565b15610303576040517f08c379a00000000000000000000000000000000000000000000000000000000081526004016102fa90610734565b60405180910390fd5b60018260000160008373ffffffffffffffffffffffffffffffffffffffff1673ffffffffffffffffffffffffffffffffffffffff16815260200190815260200160002060006101000a81548160ff0219169083151502179055505050565b600033905090565b61037d8160016102b990919063ffffffff16565b8073ffffffffffffffffffffffffffffffffffffffff167fee1504a83b6d4a361f4c1dc78ab59bfa30d6a3b6612c403e86bb01ef2984295f60405160405180910390a250565b6103d781600161059990919063ffffffff16565b8073ffffffffffffffffffffffffffffffffffffffff167f270d9b30cf5b0793bbfd54c9d5b94aeb49462b8148399000265144a8722da6b660405160405180910390a250565b60008073ffffffffffffffffffffffffffffffffffffffff168273ffffffffffffffffffffffffffffffffffffffff16141561048e576040517f08c379a000000000000000000000000000000000000000000000000000000000815260040161048590610774565b60405180910390fd5b8260000160008373ffffffffffffffffffffffffffffffffffffffff1673ffffffffffffffffffffffffffffffffffffffff16815260200190815260200160002060009054906101000a900460ff16905092915050565b6104f981600061059990919063ffffffff16565b8073ffffffffffffffffffffffffffffffffffffffff167f0a8eb35e5ca14b3d6f28e4abf2f128dbab231a58b56e89beb5d636115001e16560405160405180910390a250565b6105538160006102b990919063ffffffff16565b8073ffffffffffffffffffffffffffffffffffffffff167f22380c05984257a1cb900161c713dd71d39e74820f1aea43bd3f1bdd2096129960405160405180910390a250565b6105a3828261041d565b6105e2576040517f08c379a00000000000000000000000000000000000000000000000000000000081526004016105d990610754565b60405180910390fd5b60008260000160008373ffffffffffffffffffffffffffffffffffffffff1673ffffffffffffffffffffffffffffffffffffffff16815260200190815260200160002060006101000a81548160ff0219169083151502179055505050565b60008135905061064f81610919565b92915050565b60006020828403121561066757600080fd5b600061067584828501610640565b91505092915050565b610687816107d7565b82525050565b600061069a601f836107b4565b91506106a582610803565b602082019050919050565b60006106bd6021836107b4565b91506106c88261082c565b604082019050919050565b60006106e06022836107b4565b91506106eb8261087b565b604082019050919050565b60006107036040836107b4565b915061070e826108ca565b604082019050919050565b600060208201905061072e600083018461067e565b92915050565b6000602082019050818103600083015261074d8161068d565b9050919050565b6000602082019050818103600083015261076d816106b0565b9050919050565b6000602082019050818103600083015261078d816106d3565b9050919050565b600060208201905081810360008301526107ad816106f6565b9050919050565b600082825260208201905092915050565b60006107d0826107e3565b9050919050565b60008115159050919050565b600073ffffffffffffffffffffffffffffffffffffffff82169050919050565b7f526f6c65733a206163636f756e7420616c72656164792068617320726f6c6500600082015250565b7f526f6c65733a206163636f756e7420646f6573206e6f74206861766520726f6c60008201527f6500000000000000000000000000000000000000000000000000000000000000602082015250565b7f526f6c65733a206163636f756e7420697320746865207a65726f20616464726560008201527f7373000000000000000000000000000000000000000000000000000000000000602082015250565b7f57686974656c69737441646d696e526f6c653a2063616c6c657220646f65732060008201527f6e6f742068617665207468652057686974656c69737441646d696e20726f6c65602082015250565b610922816107c5565b811461092d57600080fd5b5056fea264697066735822122016a0920fe664ad111ed2db01a6b0b72b9c1d7187420f821d3b21209d7cfd3e4764736f6c63430008020033",
  "linkReferences": {},
  "deployedLinkReferences": {}
}